:040000000200433285
:03000B000200EF01
:0100130032BA
:01001B0032B2
:0100230032AA
:01002B0032A2
:01003300329A
:03003B0002019629
:03009C0002003E21
:05003E001200D880FE55
:0C009F00758921D28CD2AFD2A97508005F
:0100AB002232
:0E00AC00D2AFD2E875C30D75C20075C1302207
:0500BA00C010C011C0E0
:0400BF000EC00F74EC
:0A00C30085C0E0740BC0E07480C03B
:0B00CD00E0120596E58124F9F5812280
:0A00D8001204037582011202551292
:0600E20005261202921235
:0500E800009F1200ACB6
:0200ED0080FE93
:0C00EF00C022C0E0C0F0C082C083C0028C
:0E00FB00C003C004C005C006C007C000C0019D
:0C010900C0D075D000758C3C758AB00524
:07011500087406B5085E75D1
:0A011C00080075820012025F858260
:050126000E85830F129D
:0C012B0000BA85B10975B100A2B2B3E4BE
:0D01370033F5A375B34175B20075B1307595
:020144000A00AF
:0A01460074FE250A4021E50A75F059
:0A01500008A4FA8AF005F0AA0EAB2D
:03015A000F80070C
:07015D00C3EB13FBEA13FAE8
:09016400D5F0F68AA3050A80D942
:0C016D0075B12043BF0475B3418509B192
:0E017900D0D0D001D000D007D006D005D004E1
:0D018700D003D002D083D082D0F0D0E0D0E1
:02019400223215
:0C019600C022C0E0C0F0C082C083C002E4
:0E01A200C003C004C005C006C007C000C001F5
:0C01B000C0D075D00085B10C75B110E511
:0A01BC00B230E53DE4F510F51175D1
:0201C6000B002C
:0B01C80074FE250B4026AAA37B00E577
:0C01D3000B75F008A4FCADF08CF005F0FA
:0201DF00800698
:0601E100EA2AFAEB33FBF1
:0A01E700D5F0F7EA4210EB421105D3
:0301F1000B80D4AC
:0901F4001200BA75B38275B20065
:0B01FD0075B120E5B230E51C750B0168
:0702080085A30DD50BFA756B
:0A020F000B0175B38175B200E50D17
:060219007004D2C4800253
:02021F00C2C457
:0E02210075B130E5B230E60943BF0475B3A2F3
:03022F0075B200A5
:0C023200850CB1759B00D0D0D001D0002D
:0E023E00D007D006D005D004D003D002D08364
:09024C00D082D0F0D0E0D02232C3
:0E0B85000A506F74543A202535640A506F747C
:070B9300523A2025356400F1
:0A0255008582F675F20875F3202289
:0D025F00AA8253F3F874075A42F343F308E0
:0E026C00E5F330E4FB53F3EFAAF5E4CA25E016
:0E027A00CA33CA25E0CA33FB740355F4FC7D79
:0A02880000EC2AF582ED3BF583221D
:0602920075AB01751200BE
:0A02980074F125124039E512C45438
:0E02A200F0F5B175B30075B20075BC0075BD06
:0E02B0000075BE0075BF0075C4FF75C5E07512
:0802BE00C60075C704751300AA
:0A02C60074F82513400775A3000526
:0302D0001380F3A5
:0402D300051280C1CF
:0E02D70075B40675B56E75B63C75AB0275B1A3
:0E02E5000075BC7775BD2075B11075BC97759E
:0E02F300BD2075B38275B12075BCD475BD20D9
:0E03010075B13075BCD475BD0043BF0475B333
:02030F00A22228
:04031100AA82AB838E
:050315001ABAFF011BF4
:05031A00EA4B70F72220
:0D031F0090000112031175A02F9000011233
:0E032C000311D2A6900001120311740F55A008
:0C033A00C454F0FAC2A630002390000169
:0E034600C00212031175A02F900001120311C6
:0E035400D2A6900001120311D002740F55A022
:040362002AFAC2A60B
:030366008A822266
:0C036900AA82A2AF9201C2AFEAC4540FF6
:0E037500FB740F5BF5A0900001C00212031193
:0E038300D2A6900001120311D002C2A6740F80
:0E0391005AF5A0900001120311D2A6900001AF
:05039F00120311C2A6CB
:0B03A400D20012031FE58220E7F6A242
:0403AF000192AF22E6
:0C03B300AA82A2AF9202C2AFEAC4540FAB
:0E03BF00FB740F5B4410F5A0900001C0021209
:0E03CD000311D2A6900001120311D002C2A6A5
:0E03DB00740F5A4410F5A0900001120311D2C5
:0903E900A6900001120311C2A646
:0B03F200D20012031FE58220E7F60591
:0603FD0014A20292AF22DF
:0D04030075A000901F4012031175A003901A
:0E0410000001120311D2A6900001120311C2C6
:0E041E00A69007D012031175A00390000112E2
:0D042C000311D2A6900001120311C2A69088
:0E043900003212031175A0039000011203118E
:0A044700D2A6900001120311C2A614
:0C045100C20012031FE58220E7F675A030
:0D045D0002900001120311D2A690000112BE
:04046A000311C2A612
:0C046E00C20012031FE58220E7F6758231
:0E047A00281203697582011203697582061249
:09048800036975820C1203697509
:0304910014002232
:0C049400AA82BA0D117582C0120369E53E
:0504A000167003851534
:0104A5001640
:0404A60075150022A6
:0504AA00E4BA0A0104A0
:0804AF00FB70057410B515592E
:0E04B700758201C002C003120369D003D00297
:0504C500E516B515006D
:0504CA0050038515162A
:0204CF007C00AF
:0404D100ECB5160070
:0A04D500501FEC2400F582E434000F
:0E04DF00F583E0F582C002C003C0041203B32F
:0904ED00D004D003D0020C80DB26
:0E04F6007582C0C002C003120369D003D00299
:0A050400E4F515F516EB70198A8274
:02050E008084E7
:06051000AB150515EB24FC
:0A05160000F582E43400F583EAF0FA
:050520008A820203B312
:0105250022B3
:0C052600C296C294C295D293D2957A007E
:03053200BA1000FC
:090535005007D294C2940A80F42C
:07053E00D296C296C297227B
:0A054500AA82AB83C295D2957C0018
:03054F00BC0A00E3
:0A0552005018EB035401FDB4010042
:0E055C009293EBCA25E0CA33FBD294C2940CF2
:02056A0080E32C
:05056C00D296C29622A8
:06007200E478FFF6D8FD62
:080050007900E94400601B7A0D
:0500580000900BA578EB
:03005D001075A07B
:0A00600000E493F2A308B8000205C3
:08006A00A0D9F4DAF275A0FF41
:080078007800E84400600A79F9
:030080000075A068
:0600830000E4F309D8FCC3
:080089007810E84400600C79D6
:0B00910001900000E4F0A3D8FCD9FAB5
:06057100C018858118127C
:050577000494D01822DD
:08057C0085823285833385F08E
:0505840034E4F52FF541
:05058900307531008512
:03058E001735908E
:0505910005710206598E
:06059600C018858118E584
:07059C001824FBF535E4F51E
:0405A3002FF530F50B
:0705A70031E51824FBF88682
:0605AE00320886330886C6
:0505B4003490057112F6
:0505B9000659D01822D4
:0705BE00AA82C025C026C07F
:0605C5002774D5C0E074AC
:0605CB0005C0E0C023C0E2
:0405D100248A8222D4
:0A05D500158115811581052DE4B58F
:0405DF002D02052EB6
:0105E30022F5
:0B05E400AA8274302AFA7439B50200B4
:0C05EF00500A74072AFA3003034302206C
:0505FB008A820205BE2A
:0E060000E582FAC4540FF582C0021205E4D060
:09060E0002740F5AF5820205E4A2
:06061700858219AB28AC3E
:04061D0029AD2AAE2B
:040621002BAF2C755A
:020625001A2099
:0E062700EF2FFFEE235401FA4207EB2BFBEC02
:0C06350033FCED33FDEE33FEEFB5190091
:0A0641004008EFC39519FF430301C1
:06064B00D51AD98B288CA2
:04065100298D2A8E37
:040655002B8F2C2299
:0706590085822385832485BF
:030660002F2585BE
:03066300302685B9
:040666003127E4F55F
:03066A002DF52E3D
:05066D00AA32AB33AC22
:0C067200348A828B838CF0120B65FD74BF
:09067E00012AF532E43BF5338C4E
:0806870034EDFA7003020B468A
:05068F00BA2502800302
:03069400020B3E18
:05069700C204C205C20F
:04069C0006C207C2C9
:0406A00008C209C2C1
:0406A4000AC20B7506
:0806A80036007537007DFFAE3E
:0406B00032AF33AB87
:0106B4003411
:0E06B5008E828F838BF0120B65FAA3AE82AF9C
:0606C300838E328F338BA1
:0B06C90034BA25078A821205BE809912
:0506D4008A04BC3000A7
:0906D90040288A047439B50400BC
:0C06E200401FBDFF11E53775F00AA42A87
:0A06EE0024D0F53770C1D20580BD9D
:0B06F800ED75F00AA42A24D0FD80B2AA
:0A070300BA2E07BDFFAC7D0080A8F0
:05070D008A04BC61003C
:0907120040108A04747AB5040059
:09071B0040075302DFD203800203
:02072400C2030E
:05072600BA200280551D
:05072B00BA2B02804B17
:05073000BA2D0280411A
:05073500BA4202804BF6
:05073A00BA43028050EB
:06073F00BA44030208E7C2
:06074500BA46030208FDA4
:06074B00BA49030208E7B1
:05075100BA4C028034E7
:06075600BA4F030208EE99
:06075C00BA500302087E02
:05076200BA5302804CB7
:06076700BA55030208F37D
:06076D00BA58030208F86F
:0307730002090177
:05077600D2040206B5EB
:05077B00D2060206B5E4
:05078000D2070206B5DE
:05078500D2090206B5D7
:05078A00D20A0206B5D1
:08078F0030090AE53514F88871
:05079700358602800F11
:0A079C00E53524FEF88835860308D1
:0507A6008604188B021F
:0807AB008A821205BE02090A50
:0A07B300E53524FDF88835860308BB
:0A07BD00860408860618188B288CA5
:0A07C700298E2A8B828C838EF0C0ED
:0E07D10005120B4DAB82AC83D005BDFF028B31
:0107DF000514
:0707E00020042CEBB53700EB
:0907E7005026E537C39BF537AC41
:0107F00037D1
:0C07F1008C061C8C37EE6014758220C052
:0E07FD0003C004C0051205BED005D004D00311
:02080B0080E487
:02080D008C3726
:02080F008D0456
:0708110085288285298385FB
:0C0818002AF0120B65FDFA602F8C051C05
:0E082400C374808DF063F08095F050208A82BE
:0C083200C003C0041205BED004D003AD0A
:04083E0028AE29AF08
:060842002A0DBD00010EAD
:050848008D288E298FB0
:03084D002A80C13D
:0608500020040302090A66
:04085600EBB53700C7
:05085A00400302090A41
:07085F00E537C39BF537AC40
:01086600375A
:0B0867008C051C8C37ED7003020908A3
:0C087200758220C0041205BED00480E98D
:0A087E00E53524FDF88835860508ED
:0A088800860608860718188D288ED2
:04089200298F2AADD3
:040896002ABD8000F7
:06089A0040047A438014C3
:0308A000BD600038
:0608A30040047A50800BB6
:0308A900BD40004F
:0608AC0040047A498002BD
:0208B2007A5872
:0E08B4008A82C0021205BE75823A1205BE7518
:0E08C20082301205BE7582781205BED002BAD1
:0408D0004902800B4E
:0508D400BA500280068D
:0608D900852982120600D1
:0808DF00852882120600802327
:0708E700D20875360A801CDF
:0508EE007536088017BB
:0508F30075360A8012B9
:0508F800753610800DB3
:0408FD00D20B800991
:070901008A821205BE80028C
:020908008C372A
:09090A00300B5AE53524FCF88895
:0C0913003586040886050886060886075D
:08091F001818188C288D298E90
:040927002A8F2B7573
:03092B00289A7592
:03092E00290B751D
:020931002A801A
:040933008528398555
:03093700293A85D5
:05093A002A3B740125B9
:07093F0039FFE4353AFCAD7D
:040946003B8F288C2F
:04094A00298D2A8544
:06094E003982853A838521
:0A0954003BF0120B65FCFA70030281
:02095E00066D24
:070960008A821205BE80CC63
:07096700E536700302066D86
:04096E007538413067
:07097200092BE53514F8889C
:0A09790035E6FD3395E0FEFFFC8D2E
:04098300288E298F02
:040987002A8C2B206B
:0A098B000862AC287D007E007F00AA
:050995008C288D298E65
:05099A002A8F2B8050A4
:09099F00300A1FE53524FCF8883C
:0C09A800358604088605088606088607C8
:0809B4001818188C288D298EFB
:0509BC002A8F2B802EA4
:0A09C100E53524FEF88835860408A9
:0C09CB00860518ED3395E0FEFF8C288DAA
:0409D700298E2A8FAC
:0509DB002B200810AC08
:0809E00028AD297E007F008C88
:0409E800288D298E9F
:0309EC002A8F2B24
:0609EF00300825AC28AD24
:0409F50029AE2AE518
:0C09F9002BFF30E717C3E49CFCE49DFDDD
:0A0A0500E49EFEE49FFF8C288D297B
:060A0F008E2A8F2B8002ED
:020A1500C20815
:060A1700D20CA8387C009F
:0A0A1D00752C00853682C004C0006D
:0B0A2700120617D000D004200C0DE5D3
:0A0A32002CC4FDE6FE4DF6188838CE
:020A3C00800236
:020A3E00A62CE4
:080A40000C8C03B20CE5284503
:040A480029452A45CD
:080A4C002B70CE88388C03E505
:060A540037700375370145
:0A0A5A00200525200422EB04FCAD6A
:010A6400375A
:040A6500ECB50500E7
:0E0A69005015758220C003C004C0051205BEE2
:090A7700D005D004D0031D80E578
:020A80008D37B0
:0C0A820030080E75822DC0031205BED096
:050A8E00031537802371
:0C0A9300EB602030060E75822BC00312B1
:080A9F0005BED0031537800FDE
:0C0AA70030070C758220C0031205BED081
:030AB300031537F1
:050AB600200425AC370F
:090ABB008C051C8C37EBB505001D
:090AC400502B3005047D30800246
:020ACD007D208A
:0E0ACF008D82C003C0041205BED004D0038087
:010ADD00DD3B
:040ADE00EBB537003D
:0A0AE2005008E537C39BF537800785
:050AEC007537008002D7
:020AF1008C3740
:020AF300A83821
:0A0AF5008B041BEC6026B20C200CF1
:0B0AFF000A08E6C4540FFC8C2C800792
:070B0A008604740F5CF52C5A
:0C0B1100852C82C003C0001205E4D00057
:040B1D00D00380D4AD
:060B210020040302066D32
:020B2700AB37EA
:090B29008B041BEC700302066D45
:0C0B3200758220C0031205BED00380EBCA
:080B3E008A821205BE02066D59
:070B4600852D82852E83221C
:0B0B9A003C4E4F20464C4F41543E00A3
:040B4D00AA82AB834A
:080B5100120B656003A380F89C
:0C0B5900C3E5829AF582E5839BF58322B8
:0300430075814183
:0A004600120B81E582600302003E08
:0E0B650020F71430F6148883A88220F507E6E6
:060B7300A8837583002237
:030B7900E280F720
:030B7C00E49322DD
:020B7F00E02272
:040B81007582002257
:00000001FF
