:0400000002001332B5
:03000B00020129C6
:03006C0002000E81
:05000E0012009A80FEC3
:0C006F00758921D28CD2AFD2A97508008F
:01007B002262
:05007C00C010C011C01E
:040081000EC00F742A
:0A00850000C0E0740BC0E07480C0FE
:0B008F00E0120511E58124F9F5812243
:0A009A0012037E7582011201D012DC
:0600A40004A112020D127E
:0200AA00006FE5
:0C00AC0075B110E5B230E53DE4F510F54B
:0400B80011750B00B3
:0B00BC0074FE250B4026AAA37B00E584
:0C00C7000B75F008A4FCADF08CF005F007
:0200D3008006A5
:0600D500EA2AFAEB33FBFE
:0A00DB00D5F0F7EA4210EB421105E0
:0300E5000B80D4B9
:0900E80012007C75B38275B200B0
:0B00F10075B120E5B230E51C750B0175
:0700FC0085A30DD50BFA7579
:0A0103000B0175B38175B200E50D24
:06010D007004D2C4800260
:02011300C2C464
:0E01150075B130E5B230E68F43BF0475B3A27A
:0601230075B2000200AC01
:0C012900C022C0E0C0F0C082C083C00251
:0E013500C003C004C005C006C007C000C00162
:0C014300C0D075D000758C3C758AB005EA
:07014F00087406B5085E7597
:0A01560008007582001201DA8582AC
:050160000E85830F1263
:0C016500007C85B10975B100A2B2B3E4C2
:0D01710033F5A375B34175B20075B130755B
:02017E000A0075
:0A01800074FE250A4021E50A75F01F
:0A018A0008A4FA8AF005F0AA0EABF3
:030194000F8007D2
:07019700C3EB13FBEA13FAAE
:09019E00D5F0F68AA3050A80D908
:0C01A70075B12043BF0475B3418509B158
:0E01B300D0D0D001D000D007D006D005D004A7
:0D01C100D003D002D083D082D0F0D0E0D0A7
:0201CE002232DB
:0E0B00000A506F74543A202535640A506F7401
:070B0E00523A202535640076
:0A01D0008582F675F20875F320220F
:0D01DA00AA8253F3F874075A42F343F30866
:0E01E700E5F330E4FB53F3EFAAF5E4CA25E09C
:0E01F500CA33CA25E0CA33FB740355F4FC7DFF
:0A02030000EC2AF582ED3BF58322A2
:06020D0075AB0175120043
:0A02130074F125124039E512C454BD
:0E021D00F0F5B175B30075B20075BC0075BD8B
:0E022B000075BE0075BF0075C4FF75C5E07597
:08023900C60075C7047513002F
:0A02410074F82513400775A30005AB
:03024B001380F32A
:04024E00051280C154
:0E02520075B40675B56E75B63C75AB0275B128
:0E0260000075BC7775BD2075B11075BC977523
:0E026E00BD2075B38275B12075BCD475BD205E
:0E027C0075B13075BCD475BD0043BF0475B3B9
:02028A00A222AE
:04028C00AA82AB8314
:050290001ABAFF011B7A
:05029500EA4B70F722A6
:0D029A0090000112028C75A02F900001123F
:0E02A700028CD2A690000112028C740F55A09A
:0C02B500C454F0FAC2A6300023900001EF
:0E02C100C00212028C75A02F90000112028C58
:0E02CF00D2A690000112028CD002740F55A02E
:0402DD002AFAC2A691
:0302E1008A8222EC
:0C02E400AA82A2AF9201C2AFEAC4540F7C
:0E02F000FB740F5BF5A0900001C00212028C9F
:0E02FE00D2A690000112028CD002C2A6740F8C
:0E030C005AF5A090000112028CD2A6900001BA
:05031A0012028CC2A6D6
:0B031F00D20012029AE58220E7F6A24D
:04032A000192AF226B
:0C032E00AA82A2AF9202C2AFEAC4540F30
:0E033A00FB740F5B4410F5A0900001C002128E
:0E034800028CD2A690000112028CD002C2A636
:0E035600740F5A4410F5A090000112028CD2D0
:09036400A690000112028CC2A651
:0B036D00D20012029AE58220E7F6059C
:0603780014A20292AF2264
:0D037E0075A000901F4012028C75A0039026
:0E038B00000112028CD2A690000112028CC258
:0E039900A69007D012028C75A00390000112EE
:0D03A700028CD2A690000112028CC2A6901A
:0E03B400003212028C75A00390000112028C20
:0A03C200D2A690000112028CC2A620
:0C03CC00C20012029AE58220E7F675A03C
:0D03D8000290000112028CD2A690000112CA
:0403E500028CC2A61E
:0C03E900C20012029AE58220E7F675823D
:0E03F500281202E47582011202E475820612DB
:0904030002E475820C1202E4759A
:03040C00140022B7
:0C040F00AA82BA0D117582C01202E4E549
:05041B001670038515B9
:0104200016C5
:04042100751500222B
:05042500E4BA0A010425
:08042A00FB70057410B51559B3
:0E043200758201C002C0031202E4D003D002A2
:05044000E516B51500F2
:050445005003851516AF
:02044A007C0034
:04044C00ECB51600F5
:0A045000501FEC2400F582E4340094
:0E045A00F583E0F582C002C003C00412032E39
:09046800D004D003D0020C80DBAB
:0E0471007582C0C002C0031202E4D003D002A4
:0A047F00E4F515F516EB70198A82FA
:0204890080846D
:06048B00AB150515EB2482
:0A04910000F582E43400F583EAF080
:05049B008A8202032E1D
:0104A0002239
:0C04A100C296C294C295D293D2957A0004
:0304AD00BA100082
:0904B0005007D294C2940A80F4B2
:0704B900D296C296C2972201
:0A04C000AA82AB83C295D2957C009E
:0304CA00BC0A0069
:0A04CD005018EB035401FDB40100C8
:0E04D7009293EBCA25E0CA33FBD294C2940C78
:0204E50080E3B2
:0504E700D296C296222E
:06004200E478FFF6D8FD92
:080020007900E94400601B7A3D
:0500280000900B2078A0
:03002D001075A0AB
:0A00300000E493F2A308B8000205F3
:08003A00A0D9F4DAF275A0FF71
:080048007800E84400600A7929
:030050000075A098
:0600530000E4F309D8FCF3
:080059007810E84400600C7906
:0B00610001900000E4F0A3D8FCD9FAE5
:0604EC00C0188581181202
:0504F200040FD01822E8
:0804F70085823285833385F014
:0504FF0034E4F52FF5C7
:05050400307531008597
:0305090017359013
:05050C0004EC0205D41F
:06051100C018858118E509
:070517001824FBF535E4F5A3
:04051E002FF530F590
:0705220031E51824FBF88607
:060529003208863308864B
:05052F00349004EC1201
:0505340005D4D01822DF
:07053900AA82C025C026C004
:06054000277450C0E074B6
:0605460005C0E0C023C067
:04054C00248A822259
:0A055000158115811581052DE4B514
:04055A002D02052E3B
:01055E00227A
:0B055F00AA8274302AFA7439B5020039
:0C056A00500A74072AFA300303430220F1
:050576008A8202053934
:0E057B00E582FAC4540FF582C00212055FD06B
:0905890002740F5AF58202055FAD
:06059200858219AB28ACC4
:0405980029AD2AAEB1
:04059C002BAF2C75E0
:0205A0001A201F
:0E05A200EF2FFFEE235401FA4207EB2BFBEC88
:0C05B00033FCED33FDEE33FEEFB5190017
:0A05BC004008EFC39519FF43030147
:0605C600D51AD98B288C28
:0405CC00298D2A8EBD
:0405D0002B8F2C221F
:0705D4008582238583248545
:0305DB002F258544
:0305DE003026853F
:0405E1003127E4F5E5
:0305E5002DF52EC3
:0505E800AA32AB33ACA8
:0C05ED00348A828B838CF0120AE0FD74CB
:0905F900012AF532E43BF5338CD4
:0806020034EDFA7003020AC195
:05060A00BA2502800387
:03060F00020AB923
:05061200C204C205C294
:0406170006C207C24E
:04061B0008C209C246
:04061F000AC20B758B
:0806230036007537007DFFAEC3
:04062B0032AF33AB0C
:01062F003496
:0E0630008E828F838BF0120AE0FAA3AE82AFA7
:06063E00838E328F338B26
:0B06440034BA25078A8212053980991C
:05064F008A04BC30002C
:0906540040288A047439B5040041
:0C065D00401FBDFF11E53775F00AA42A0C
:0A06690024D0F53770C1D20580BD22
:0B067300ED75F00AA42A24D0FD80B22F
:0A067E00BA2E07BDFFAC7D0080A876
:050688008A04BC6100C2
:09068D0040108A04747AB50400DF
:0906960040075302DFD203800289
:02069F00C20394
:0506A100BA20028055A3
:0506A600BA2B02804B9D
:0506AB00BA2D028041A0
:0506B000BA4202804B7C
:0506B500BA4302805071
:0606BA00BA4403020862CD
:0606C000BA4603020878AF
:0606C600BA4903020862BC
:0506CC00BA4C0280346D
:0606D100BA4F03020869A4
:0606D700BA50030207F90E
:0506DD00BA5302804C3D
:0606E200BA550302086E88
:0606E800BA58030208737A
:0306EE0002087C83
:0506F100D204020630F6
:0506F600D206020630EF
:0506FB00D207020630E9
:05070000D209020630E1
:05070500D20A020630DB
:08070A0030090AE53514F888F6
:05071200358602800F96
:0A071700E53524FEF8883586030856
:050721008604188B02A4
:080726008A82120539020885E0
:0A072E00E53524FDF8883586030840
:0A073800860408860618188B288C2A
:0A074200298E2A8B828C838EF0C072
:0E074C0005120AC8AB82AC83D005BDFF028B3C
:01075A000599
:07075B0020042CEBB5370070
:090762005026E537C39BF537ACC6
:01076B003756
:0C076C008C061C8C37EE6014758220C0D7
:0E07780003C004C005120539D005D004D0031B
:0207860080E40D
:020788008C37AC
:02078A008D04DC
:07078C008528828529838581
:0C0793002AF0120AE0FDFA602F8C051C11
:0E079F00C374808DF063F08095F050208A8244
:0C07AD00C003C004120539D004D003AD15
:0407B90028AE29AF8E
:0607BD002A0DBD00010E33
:0507C3008D288E298F36
:0307C8002A80C1C3
:0607CB0020040302088572
:0407D100EBB537004D
:0507D50040030208854D
:0707DA00E537C39BF537ACC6
:0107E10037E0
:0B07E2008C051C8C37ED7003020883AF
:0C07ED00758220C004120539D00480E998
:0A07F900E53524FDF8883586050873
:0A080300860608860718188D288E57
:04080D00298F2AAD58
:040811002ABD80007C
:0608150040047A43801448
:03081B00BD6000BD
:06081E0040047A50800B3B
:03082400BD4000D4
:0608270040047A49800242
:02082D007A58F7
:0E082F008A82C00212053975823A12053975A7
:0E083D008230120539758278120539D002BA60
:04084B004902800BD3
:05084F00BA5002800612
:0608540085298212057BDC
:08085A0085288212057B802332
:07086200D20875360A801C64
:05086900753608801740
:05086E0075360A80123E
:05087300753610800D38
:04087800D20B800916
:07087C008A82120539800297
:020883008C37B0
:09088500300B5AE53524FCF8881B
:0C088E00358604088605088606088607E3
:08089A001818188C288D298E16
:0408A2002A8F2B75F9
:0308A6002815759D
:0308A900290B75A3
:0208AC002A80A0
:0408AE0085283985DB
:0308B200293A855B
:0508B5002A3B7401253F
:0708BA0039FFE4353AFCAD03
:0408C1003B8F288CB5
:0408C500298D2A85CA
:0608C9003982853A8385A7
:0A08CF003BF0120AE0FCFA7003028D
:0208D90005E830
:0708DB008A8212053980CC6E
:0708E200E53670030205E892
:0408E90075384130ED
:0708ED00092BE53514F88822
:0A08F40035E6FD3395E0FEFFFC8DB4
:0408FE00288E298F88
:040902002A8C2B20F0
:0A0906000862AC287D007E007F002F
:050910008C288D298EEA
:050915002A8F2B805029
:09091A00300A1FE53524FCF888C1
:0C0923003586040886050886060886074D
:08092F001818188C288D298E80
:050937002A8F2B802E29
:0A093C00E53524FEF888358604082E
:0C094600860518ED3395E0FEFF8C288D2F
:04095200298E2A8F31
:050956002B200810AC8D
:08095B0028AD297E007F008C0D
:04096300288D298E24
:030967002A8F2BA9
:06096A00300825AC28ADA9
:0409700029AE2AE59D
:0C0974002BFF30E717C3E49CFCE49DFD62
:0A098000E49EFEE49FFF8C288D2901
:06098A008E2A8F2B800273
:02099000C2089B
:06099200D20CA8387C0025
:0A099800752C00853682C004C000F3
:0B09A200120592D000D004200C0DE5DF
:0A09AD002CC4FDE6FE4DF618883854
:0209B7008002BC
:0209B900A62C6A
:0809BB000C8C03B20CE5284589
:0409C30029452A4553
:0809C7002B70CE88388C03E58B
:0609CF00377003753701CB
:0A09D500200525200422EB04FCADF0
:0109DF0037E0
:0409E000ECB505006D
:0E09E4005015758220C003C004C005120539ED
:0909F200D005D004D0031D80E5FE
:0209FB008D3736
:0C09FD0030080E75822DC003120539D0A1
:050A09000315378023F6
:0C0A0E00EB602030060E75822BC0031236
:080A1A000539D0031537800FE8
:0C0A220030070C758220C003120539D08B
:030A2E0003153776
:050A3100200425AC3794
:090A36008C051C8C37EBB50500A2
:090A3F00502B3005047D308002CB
:020A48007D200F
:0E0A4A008D82C003C004120539D004D0038091
:010A5800DDC0
:040A5900EBB53700C2
:0A0A5D005008E537C39BF53780070A
:050A670075370080025C
:020A6C008C37C5
:020A6E00A838A6
:0A0A70008B041BEC6026B20C200C76
:0B0A7A000A08E6C4540FFC8C2C800717
:070A85008604740F5CF52CE0
:0C0A8C00852C82C003C00012055FD00062
:040A9800D00380D433
:060A9C002004030205E83E
:020AA200AB3770
:090AA4008B041BEC70030205E851
:0C0AAD00758220C003120539D00380EBD5
:080AB9008A821205390205E8EA
:070AC100852D82852E8322A2
:0B0B15003C4E4F20464C4F41543E0028
:040AC800AA82AB83D0
:080ACC00120AE06003A380F8A8
:0C0AD400C3E5829AF582E5839BF583223E
:03001300758141B3
:0A001600120AFCE582600302000EEE
:0E0AE00020F71430F6148883A88220F507E66C
:060AEE00A88375830022BD
:030AF400E280F7A6
:030AF700E4932263
:020AFA00E022F8
:040AFC0075820022DD
:00000001FF
