:03000000020008F3
:0300610002000397
:050003001200B680FEB2
:0C006400758911D28CD2AFD2A9750800AA
:01007000226D
:0D00710075985075CBFF75CADF75C8342235
:07007E00E4F50DF50EE4F5B9
:040085000FF51075EE
:0300890009012248
:08008C00AA82AB83ACF0AD6B5E
:0D0094008D061DEE601B8A828B838CF0129E
:0D00A1001682FEA3AA82AB8374804EF599EF
:0500AE0010990280FB27
:0200B30080DFEC
:0100B5002228
:0A00B60012041F7582011202F012FD
:0600C0000542120071125E
:0500C600006412007E41
:0C00CB003098FD747F5599FA8A13BA3AF8
:0700D7000FE4F50FF51075B1
:0900DE000D01750E00C29880109E
:0700E700E50D450E600A055E
:0600EE000FE4B50F02054E
:0100F40010FB
:0200F500C298AF
:0700F700E50F2400F582E58E
:0600FE00103400F583E55B
:0601040013FAF0E50D45C1
:0A010A000E60BE740AB513B9E4F5E7
:040114000DF50EE5F2
:060118000F24FCF56B90C2
:0B011E00000175F000120881AA82E5C4
:050129000F2400FBE5BE
:0A012E00103400FCEB24FDFBEC3460
:0D013800FFFC7D008B828C838DF0C00212D5
:0C0145000623AB82D0028B17EAB5030240
:02015100800329
:030153000200CBDC
:0E01560090000175F000120623AA82BA010281
:02016400800316
:030166000200CBC9
:0B01690090000375F000120623858251
:07017400147516007401B5BB
:05017B00140302020A5A
:070180007406B514028003B0
:030187000202640D
:0E018A0090000575F000120662AA82AB838A0F
:08019800188B19EA4B60057594
:0401A000160280388B
:0E01A40090000975F000120662AA82AB838AF1
:0A01B2000B8B0CC374FF9A74039BBF
:0701BC0050057516038019C0
:0501C300C00BC00C742C
:0A01C800A2C0E07416C0E07480C00D
:0A01D200E01210B3E58124FBF58173
:0701DC00E516600302026753
:0401E30085143075DA
:0301E7003500756B
:0301EA0036017566
:0401ED00370085183A
:0301F1003185193C
:0301F40032850B46
:0301F70033850C41
:0A01FA0034758201120946AA828AB8
:0602040011751200805D7F
:0E020A0090000575F000120662AA82AB838A8E
:08021800188B19EA4B704090AD
:0C0220000009F5F0120662AA82AB838A86
:0B022C0015BA012FA2B2B3E433FA8A26
:030237000A851421
:03023A00447546C2
:05023D000A7547007581
:040242004840754972
:0302460000754AF6
:0502490001754B00757A
:0B024E004501758201120B2DAA828A67
:060259001175120080087F
:05025F0075160280038A
:030264007516010B
:09026700E516601F74804514F5D2
:030270004D8516A3
:030273004E754F76
:03027600007550C0
:05027900017551008534
:08027E000982120BFCAA828A1E
:0402860011751200DC
:08028A00D2B7E51114F56B90E9
:09029200010175F000120881E57C
:05029B00112400FAE54A
:0502A000123401FB8A8D
:0402A500228B237510
:0B02A9002400120725AA827B00EA2532
:0502B40011F511EB350E
:0402B90012F512E543
:0502BD00112400FAE528
:0A02C200123401FB7C008A828B835A
:0C02CC008CF012086EAA827B00EA25115B
:0602D800F511EB3512F5F3
:0302DE0012851175
:0802E1006B90010075F00012A2
:0702E900008CC2B70200CB3C
:0E16A2000A2D2D2D20536C617665206D6F642E
:0E16B00065202D2D2D0A56616C75653A20259A
:0216BE006400C6
:0A02F0008582F675F20175F32022F5
:0D02FA00AA8253F3F874075A42F343F30845
:0E030700E5F330E4FB53F3EFAAF5E4CA25E07A
:0E031500CA33CA25E0CA33FB740355F4FC7DDD
:0A03230000EC2AF582ED3BF5832281
:04032D00AA82AB8372
:050331001ABAFF011BD8
:05033600EA4B70F72204
:0D033B0090000112032D75A02F90000112FB
:0E034800032DD2A690000112032D740F55A0B4
:0C035600C454F0FAC2A63000239000014D
:0E036200C00212032D75A02F90000112032D72
:0E037000D2A690000112032DD002740F55A0EA
:04037E002AFAC2A6EF
:030382008A82224A
:0C038500AA82A2AF9201C2AFEAC4540FDA
:0E039100FB740F5BF5A0900001C00212032D5B
:0E039F00D2A690000112032DD002C2A6740F48
:0E03AD005AF5A090000112032DD2A690000177
:0503BB0012032DC2A693
:0B03C000D20012033BE58220E7F6A20A
:0403CB000192AF22CA
:0C03CF00AA82A2AF9202C2AFEAC4540F8F
:0E03DB00FB740F5B4410F5A0900001C00212ED
:0E03E900032DD2A690000112032DD002C2A651
:0E03F700740F5A4410F5A090000112032DD28D
:09040500A690000112032DC2A60D
:0B040E00D20012033BE58220E7F60558
:060419001AA20292AF22BC
:0D041F0075A000901F4012032D75A00390E2
:0E042C00000112032DD2A690000112032DC272
:0E043A00A69007D012032D75A00390000112AA
:0D044800032DD2A690000112032DC2A69034
:0E045500003212032D75A00390000112032D3A
:0A046300D2A690000112032DC2A6DC
:0C046D00C20012033BE58220E7F675A0F8
:0D0479000290000112032DD2A69000011286
:04048600032DC2A6DA
:0C048A00C20012033BE58220E7F67582F9
:0E0496002812038575820112038575820612F5
:0904A400038575820C12038575B5
:0304AD001A002210
:0C04B000AA82BA0D117582C0120385E506
:0504BC001C7003851B0C
:0104C1001C1E
:0404C200751B002284
:0504C600E4BA0A010484
:0804CB00FB70057410B51B590C
:0E04D300758201C002C003120385D003D0025F
:0504E100E51CB51B0045
:0504E6005003851B1C02
:0204EB007C0093
:0404ED00ECB51C004E
:0A04F100501FEC2400F582E43402F1
:0E04FB00F583E0F582C002C003C0041203CFF7
:09050900D004D003D0020C80DB09
:0E0512007582C0C002C003120385D003D00260
:0A052000E4F51BF51CEB70198A824C
:02052A008084CB
:06052C00AB1B051BEB24D4
:0A05320000F582E43402F583EAF0DC
:05053C008A820203CFDA
:010541002297
:0C054200C296C294C295D293D2957A0062
:03054E00BA1000E0
:090551005007D294C2940A80F410
:07055A00D296C296C297225F
:0A056100AA82AB83C295D2957C00FC
:03056B00BC0A00C7
:0A056E005018EB035401FDB4010026
:0E0578009293EBCA25E0CA33FBD294C2940CD6
:0205860080E310
:05058800D296C296228C
:0E058D00AA82AB83ACF0121682FE7D000ABA81
:03059B0000010B51
:0E059E008A828B838CF01216827B004DF582D0
:0505AC00EB4EF5832277
:0905B100AA82AB83AC6BAD6CAE09
:0B05BA006D8B078C828D838EF0EF129A
:0A05C500107574012CF56BE43DF590
:0405CF006C8E6DAC15
:0405D3006BAD6CAEF2
:0C05D7006D8C828D838EF0EA1210757519
:0305E3008202226F
:0505E600AA82BA3000FA
:0705EB00400D7439B5020058
:0805F2004006EA24D0F5822244
:0305FA00BA410003
:0705FD00400D7446B5020039
:08060400400674C92AF58222A8
:04060C007582FF22D2
:05061000AA82BA0A00F5
:08061500500674302AF5822220
:06061D0074372AF5822269
:0E062300AA82AB83ACF0121682F582C002C030
:0E06310003C0041205E6AD82D004D003D0024F
:0A063F00EDC454F0FD0ABA00010BEF
:0E0649008A828B838CF0121682F582C0051215
:0B06570005E6AA82D005EA4DF58222DC
:0E066200AA82AB83ACF0121682F582C002C0F1
:0E06700003C0041205E6AD82D004D003D00210
:0E067E00EDC454F0FE7D0074012AFFE43BF849
:0E068C008C018F82888389F0121682F582C05D
:0E069A0002C003C004C005C0061205E6AF8210
:0E06A800D006D005D004D003D0028F00E4426B
:0E06B60005E8420674022AFFE43BF88C018F2F
:0E06C40082888389F0121682F582C002C0037C
:0E06D200C004C005C0061205E6AF82D006D0F7
:0E06E00005D004D003D002E4C454F0CFC4CF40
:0E06EE006FCF54F0CF6FF8EF4205E84206746C
:0D06FC00032AFAE43BFB8A828B838CF01208
:0E0709001682F582C005C0061205E6AA82D04F
:0E07170006D0057B00EA4DF582EB4EF58322FD
:07072500AA82AB22AC23AD58
:0C072C0024EAC4540FF582C002C003C0D0
:0E07380004C005120610AE82D005D004D00316
:0E074600D0028B828C838DF0EE121075740140
:080754002BF522E43CF5238D96
:04075C0024AB22ACFC
:0A07600023AD24740F5AF582C00384
:0E076A00C004C005120610AA82D005D004D02B
:0E077800038B828C838DF0EA1210757582025D
:010786002250
:09078700AA82AB83AC25AD26AEBD
:0C07900027EBC4540FF582C002C003C068
:0E079C0004C005C006120610AF82D006D005BC
:0E07AA00D004D0038C828D838EF0EF12107578
:0A07B80074012CF525E43DF5268EB2
:0407C20027AC25AD8E
:0A07C60026AE278B07740F5FF58243
:0E07D000C003C004C005C006120610AF82D0E0
:0E07DE0006D005D004D003D0028C828D838E0D
:0C07EC00F0EF12107574012CF525E43DAF
:0507F800F5268E27AC80
:0407FD0025AD26AE52
:0C080100278A07EBC4CFC4540F6FCF54FC
:0E080D000FCF6FCF53070F8F82C002C003C002
:0E081B0004C005C006120610AF82D006D0053C
:0E082900D004D003D0028C828D838EF0EF12AB
:0A083700107574012CF525E43DF561
:04084100268E27AC2C
:0408450025AD26AE09
:0C0849002753020F8A82C004C005C006BD
:0E085500120610AA82D006D005D0048C828D27
:0B086300838EF0EA12107575820422EB
:0D086E00ACF0740D121075A38CF0740A121A
:06087B00107575820222D7
:0A088100AA82AB83ACF07D00AE6BE1
:0D088B008E071EEF60148A828B838CF012A2
:0D0898001682FFA3AA82AB83EF2DFD80E640
:0608A500C3E49DF5822270
:0708AB00AA82AB2DAC2EADBB
:0C08B2002F8B828C838DF0743A1210752D
:0A08BE0074012BF522E43CF5238DB4
:0C08C800248A82C003C004C0051207256A
:0C08D400AA82D005D004D0030AEA2BF55C
:0608E00022E43CF5238D2B
:0A08E60024852882C002C003C0046C
:0E08F000C005120725AE82D005D004D003D07B
:0A08FE0002EE2AFA2BF525E43CF582
:04090800268D27858C
:0A090C002982852A83C002C003C0BF
:0E09160004C005120787AE82D005D004D003BE
:0B092400D002EE2AFA2BF525E43CF58A
:04092F00268D278565
:080933002B82852C83C0021207
:0B093B000787AB82D002EB2AF5822276
:07094600AA82AB35AC36AD0F
:0C094D00378B828C838DF0743A12107589
:0A09590074012BF522E43CF5238D18
:0C096300248A82C003C004C005120725CE
:0C096F00AA82D005D004D0030AEA2BF5C0
:06097B0022E43CF5238D8F
:0A09810024853082C002C003C004C8
:0E098B00C005120725AE82D005D004D003D0DF
:0A09990002EE2AFA2BF525E43CF5E6
:0409A300268D2785F1
:0A09A7003182853283C002C003C014
:0E09B10004C005120787AE82D005D004D00323
:0B09BF00D002EE2AFA2BF525E43CF5EF
:0409CA00268D2785CA
:0809CE003382853483C002125C
:0B09D6000787AB82D002EB2AF58222DB
:0709E100AA82AB40AC41AD5E
:0C09E800428B828C838DF0743A121075E3
:0A09F40074012BF522E43CF5238D7D
:0C09FE00248A82C003C004C00512072533
:0C0A0A00AA82D005D004D003EA04F54312
:080A16002BF522E43CF5238DD1
:0A0A1E0024853882C003C004C0051F
:0D0A2800120725AE82D005D004D003EE25C4
:050A350043F5432BF521
:060A3A0025E43CF5268DC9
:050A40002785398285C5
:0C0A45003A83C003C004C005120787AE4E
:0B0A510082D005D004D003EE2543F551
:070A5C00432BF525E43CF5F6
:040A6300268D278530
:0A0A67003B82853C83C003C004C03D
:0E0A710005120787AE82D005D004D003EE2513
:060A7F0043F543740FB5BE
:040A85003802800CA7
:0A0A89007410B53822E53B25E0FEAD
:020A9300801DC4
:0A0A95007407253BFFE4353CC42341
:0E0A9F00CFC423541F6FCF541FCF6FCFF88FDB
:030AAD00068002BE
:020AB0007E00C6
:080AB200E5432BF522E43CF5BD
:0A0ABA00238D248E82C003C004C007
:0E0AC40005C006120725AF82D006D005D0046B
:080AD200D003EF2543F543AF0B
:040ADA003DA83EA94C
:010ADE003FD8
:0D0ADF008E021EEA60448F82888389F01227
:0C0AEC001682FAA3AF82A883E5432BF525
:060AF80022E43CF5238D11
:0C0AFE00248A82C003C004C005C006C0EA
:0E0B0A0007C000C001120725AA82D001D0004A
:0C0B1800D007D006D005D004D003EA2599
:050B240043F54380B61B
:040B2900854382225C
:070B2D00AA82AB49AC4AADFE
:0C0B34004B8B828C838DF0743A1210758C
:0A0B400074012BF522E43CF5238D2F
:0C0B4A00248A82C003C004C005120725E5
:0C0B5600AA82D005D004D003EA04F54CBC
:080B62002BF522E43CF5238D84
:0A0B6A0024854482C003C004C005C6
:0D0B7400120725AE82D005D004D003EE2577
:050B81004CF54C2BF5C2
:060B860022E43CF5238D82
:0A0B8C0024854582C003C004C005A3
:0D0B9600120725AE82D005D004D003EE2555
:040BA3004CF54CAE13
:040BA70046AF47A866
:030BAB0048A94511
:0D0BAE00890219EA60448E828F8388F0125C
:0C0BBB001682FAA3AE82AF83E54C2BF546
:060BC70022E43CF5238D41
:0C0BCD00248A82C003C004C005C006C01A
:0E0BD90007C000C001120725AA82D001D0007B
:0C0BE700D007D006D005D004D003EA25CA
:050BF3004CF54C80B63A
:040BF800854C822284
:070BFC00AA82AB4FAC50AD23
:0C0C0300518B828C838DF0743A121075B6
:0A0C0F0074012BF522E43CF5238D5F
:0C0C1900248A82C003C004C00512072515
:0C0C2500AA82D005D004D0030AEA2BF507
:060C310022E43CF5238DD6
:0A0C370024854D82C002C003C004F2
:0E0C4100C005120725AE82D005D004D003D026
:0A0C4F0002EE2AFA2BF522E43CF530
:040C5900238D24853E
:0C0C5D004E82C002120725AB82D002EBD1
:040C69002AF58222C4
:0C0C6D00AA82AB83ACF07DFF7EFFAF6B72
:0D0C79008F001FE860228A828B838CF012AE
:0D0C86001682F8A3AA82AB83EE6200E8900C
:0E0C930016C093F96DFEE89017C093FD80D84F
:0E0CA1008D02E4FDFBEE4DF582EB4AF5832259
:0E0CAF00AA82AB83ACF074012AFDE43BFE8CFC
:0E0CBD00078D828E838FF0121682FE7D008AD4
:0E0CCB00828B838CF01216827B004DF582EB3B
:040CD9004EF583222F
:090CDD00AA82AB83AC6BAD6CAED6
:0B0CE6006D8A078C828D838EF0EF1268
:0A0CF100107574012CF56BE43DF55D
:040CFB006C8E6DACE2
:040CFF006BAD6CAEBF
:0B0D03006D8B028C828D838EF0EA1253
:060D0E001075758202223F
:070D1400AA82AB6DAC6EADCD
:0C0D1B006F8B828C838DF0EA12107574CF
:090D2700012BF56DE43CF56E8D25
:040D30006FAA6DAB8E
:0A0D34006EAC6F8A828B838CF0E5B1
:080D3E006B12107574012AF517
:060D46006DE43BF56E8C2C
:040D4C006FAA6DAB72
:0A0D50006EAC6F8A828B838CF0E595
:080D5A006C1210757582032272
:090D6200AA827403256CF573AC40
:040D6B0070AD71AE48
:0C0D6F00728C828D838EF0EA1210757475
:090D7B00012CF570E43DF5718EC8
:040D840072AA70AC33
:0A0D880071AD728A828C838DF0E554
:080D92006B12107574012AF5C3
:060D9A0070E43CF5718DD0
:040DA00072AA70AC17
:0A0DA40071AD728A828C838DF0E538
:080DAE006C12107574012AF5A6
:060DB60070E43CF5718DB4
:040DBC0072AA6DACFE
:040DC0006EAD6FAEF7
:040DC40070AF71A8F3
:030DC80072A96CA1
:0D0DCB00890319EB60208A828C838DF01261
:0E0DD8001682FBA3AA82AC838E828F8388F0E2
:0B0DE600EB121075A3AE82AF8380DA21
:040DF1008573822262
:070DF500AA82AB70AC71ADE6
:0C0DFC00728B828C838DF0EA12107574EB
:090E0800012BF570E43CF5718D3D
:040E110072AA70ABA6
:0A0E150071AC728A828B838CF0E5C9
:080E1F006B12107574012AF535
:060E270070E43BF5718C44
:040E2D0072AA70AB8A
:040E310071AC72AD81
:0C0E35006D8A828B838CF0ED12107574B6
:090E4100012AF570E43BF5718C07
:040E4A0072AA70AB6D
:040E4E0071AC72AD64
:0C0E52006C8A828B838CF0ED121075749A
:090E5E00012AF570E43BF5718CEA
:040E670072AA70AB50
:040E6B0071AC72AD47
:0C0E6F006F8A828B838CF0ED121075747A
:090E7B00012AF570E43BF5718CCD
:040E840072AA70AB33
:040E880071AC72AD2A
:0C0E8C006E8A828B838CF0ED121075755D
:030E9800820622AD
:070E9B00AA82AB70AC71AD3F
:0C0EA200728B828C838DF0EA1210757444
:090EAE00012BF570E43CF5718D97
:040EB70072AA70AB00
:0A0EBB0071AC728A828B838CF0E523
:080EC5006B12107574012AF58F
:060ECD0070E43BF5718C9E
:040ED30072AA70ABE4
:040ED70071AC72ADDB
:0C0EDB006D8A828B838CF0ED1210757410
:090EE700012AF570E43BF5718C61
:040EF00072AA70ABC7
:040EF40071AC72ADBE
:0C0EF8006C8A828B838CF0ED12107574F4
:090F0400012AF570E43BF5718C43
:040F0D0072AA70ABA9
:040F110071AC72ADA0
:0C0F15006F8A828B838CF0ED12107574D3
:090F2100012AF570E43BF5718C26
:040F2A0072AA70AB8C
:040F2E0071AC72AD83
:0C0F32006E8A828B838CF0ED12107575B6
:030F3E0082062206
:070F4100AA82AB73AC74AD92
:0C0F4800758B828C838DF0EA121075749A
:090F5400012BF573E43CF5748DEA
:040F5D0075AA73AB53
:0A0F610074AC758A828B838CF0E576
:080F6B006B12107574012AF5E8
:060F730073E43BF5748CF1
:040F790075AA73AB37
:040F7D0074AC75AD2E
:0C0F81006D8A828B838CF0ED1210757469
:090F8D00012AF573E43BF5748CB4
:040F960075AA73AB1A
:040F9A0074AC75AD11
:0C0F9E006C8A828B838CF0ED121075744D
:090FAA00012AF573E43BF5748C97
:040FB30075AA73ABFD
:040FB70074AC75ADF4
:0C0FBB006F8A828B838CF0ED121075742D
:090FC700012AF573E43BF5748C7A
:040FD00075AA73ABE0
:040FD40074AC75ADD7
:0C0FD8006E8A828B838CF0ED1210757411
:090FE400012AF573E43BF5748C5D
:080FED0075740FB56B02800B57
:0A0FF5007410B56B21ED2DF5768028
:010FFF001ED3
:0A1000007407256EFBE4356FC4236E
:0E100A00CBC423541F6BCB541FCB6BCBFC8B82
:03101800768003DC
:03101B00757600E7
:05101E00AB73AC74ADE2
:0A102300758B828C838DF0E5761248
:0A102D00107574012BF573E43CF517
:04103700748D75AB94
:04103B0070AC71AD77
:04103F0072AE73AF6B
:0410430074A875A96F
:011047007632
:0D104800890219EA60208B828C838DF012E2
:0E1055001682FAA3AB82AC838E828F8388F062
:0B106300EA121075A3AE82AF8380DAA2
:07106E0074072576F58222CC
:0E16C00000C1814001C0804101C0804100C1D5
:0E16CE00814001C0804100C1814000C18140C7
:0E16DC0001C0804101C0804100C1814000C1B9
:0E16EA00814001C0804100C1814001C08041AB
:0E16F80001C0804100C1814001C0804100C19D
:0E170600814000C1814001C0804100C181408E
:0E17140001C0804101C0804100C1814000C180
:0E172200814001C0804101C0804100C1814072
:0E17300001C0804100C1814000C1814001C064
:0E173E00804101C0804100C1814000C1814056
:0E174C0001C0804100C1814001C0804101C048
:0E175A00804100C1814000C1814001C080413A
:0E17680001C0804100C1814001C0804100C12C
:0E177600814000C1814001C0804100C181401E
:0E17840001C0804101C0804100C1814001C010
:0E179200804100C1814000C1814001C0804102
:0E17A00001C0804100C1814000C1814001C0F4
:0E17AE00804100C1814001C0804101C08041E6
:0417BC0000C18140A7
:0E17C00000C0C101C30302C2C60607C705C5AB
:0E17CE00C404CC0C0DCD0FCFCE0E0ACACB0B2F
:0E17DC00C90908C8D81819D91BDBDA1A1EDE95
:0E17EA00DF1FDD1D1CDC14D4D515D71716D655
:0E17F800D21213D311D1D010F03031F133F3EF
:0E180600F23236F6F737F53534F43CFCFD3D92
:0E181400FF3F3EFEFA3A3BFB39F9F83828E870
:0E182200E929EB2B2AEAEE2E2FEF2DEDEC2C10
:0E183000E42425E527E7E62622E2E323E12172
:0E183E0020E0A06061A163A3A26266A6A76776
:0E184C00A56564A46CACAD6DAF6F6EAEAA6AFC
:0E185A006BAB69A9A86878B8B979BB7B7ABA7C
:0E186800BE7E7FBF7DBDBC7CB47475B577B706
:0E187600B67672B2B373B17170B050909151EA
:0E1884009353529296565797559594549C5CE8
:0E1892005D9D5F9F9E5E5A9A9B5B9959589888
:0E18A000884849894B8B8A4A4E8E8F4F8D4D5A
:0E18AE004C8C4484854587474686824243839E
:0418BC0041818040A6
:06003700E478FFF6D8FD9D
:080015007900E94400601B7A48
:05001D00009018CB78F3
:030022001075A0B6
:0A00250002E493F2A308B8000205FC
:08002F00A0D9F4DAF275A0FF7C
:0E10750020F71030F6118883A88220F507F6C8
:05108300A88375830045
:011088002245
:03108900F280F7FB
:02108C00F02250
:08003D007800E84400600A7934
:030045000075A0A3
:0600480000E4F309D8FCFE
:08004E007810E84402600C790F
:0B00560003900000E4F0A3D8FCD9FAEE
:06108E00C01E85811E1248
:0510940004B0D01E2293
:0810990085826185836285F008
:0510A10063E4F55EF5BB
:0510A6005F756000858C
:0310AB001D649031
:0510AE00108E02117616
:0610B300C01E85811EE550
:0710B9001E24FBF564E4F5C1
:0410C0005EF55FF585
:0710C40060E51E24FBF88625
:0610CB0061088662088640
:0510D1006390108E1277
:0510D6001176D01E227E
:0710DB00AA82C054C055C0F9
:0610E2005674F2C0E07438
:0610E80010C0E0C052C080
:0410EE00538A82227D
:0A10F200158115811581055CE4B538
:0410FC005C02055D30
:0111000022CC
:0B110100AA8274302AFA7439B502008B
:0C110C00500A74072AFA30030343022043
:051118008A820210DBD9
:0E111D00E582FAC4540FF582C002121101D00F
:09112B0002740F5AF58202110151
:0611340085826BAB57AC95
:04113A0058AD59AEA5
:04113E005AAF5B75D4
:021142006C201F
:0E114400EF2FFFEE235401FA4207EB2BFBECDA
:0C11520033FCED33FDEE33FEEFB56B0017
:0A115E004008EFC3956BFF43030147
:06116800D56CD98B578CF9
:04116E00588D598EB1
:041172005A8F5B2213
:071176008582528583538539
:03117D005E548538
:031180005F558533
:041183006056E4F5D9
:031187005CF55DB7
:05118A00AA61AB62AC9C
:0C118F00638A828B838CF0121682FD7440
:09119B00012AF561E43BF5628CC8
:0811A40063EDFA70030216630B
:0511AC00BA25028003DA
:0311B10002165BC8
:0511B400C204C205C2E7
:0411B90006C207C2A1
:0411BD0008C209C299
:0411C1000AC20B75DE
:0811C50065007566007DFFAEB8
:0411CD0061AF62AB01
:0111D10063BA
:0E11D2008E828F838BF0121682FAA3AE82AF4C
:0611E000838E618F628B1B
:0B11E60063BA25078A821210DB809993
:0511F1008A04BC30007F
:0911F60040288A047439B5040094
:0C11FF00401FBDFF11E56675F00AA42A30
:0A120B0024D0F56670C1D20580BD45
:0B121500ED75F00AA42A24D0FD80B281
:0A122000BA2E07BDFFAC7D0080A8C8
:05122A008A04BC610014
:09122F0040108A04747AB5040031
:0912380040075302DFD2038002DB
:02124100C203E6
:05124300BA20028055F5
:05124800BA2B02804BEF
:05124D00BA2D028041F2
:05125200BA4202804BCE
:05125700BA43028050C3
:06125C00BA440302140471
:06126200BA460302141A53
:06126800BA490302140460
:05126E00BA4C028034BF
:06127300BA4F0302140B48
:06127900BA500302139BB2
:05127F00BA5302804C8F
:06128400BA55030214102C
:06128A00BA58030214151E
:0312900002141E27
:05129300D2040211D29B
:05129800D2060211D294
:05129D00D2070211D28E
:0512A200D2090211D287
:0512A700D20A0211D281
:0812AC0030090AE56414F8881A
:0512B400648602800FBA
:0A12B900E56424FEF888648603084B
:0512C3008604188B02F7
:0812C8008A821210DB021427D8
:0A12D000E56424FDF8886486030835
:0A12DA00860408860618188B578C4E
:0A12E400588E598B828C838EF0C067
:0E12EE000512166AAB82AC83D005BDFF028BE1
:0112FC0005EC
:0712FD0020042CEBB5660094
:091304005026E566C39BF566ACBA
:01130D006679
:0C130E008C061C8C66EE6014758220C0FA
:0E131A0003C004C0051210DBD005D004D003C0
:0213280080E45F
:02132A008C66CF
:02132C008D042E
:07132E008557828558838575
:0C13350059F0121682FDFA602F8C051C86
:0E134100C374808DF063F08095F050208A8296
:0C134F00C003C0041210DBD004D003ADBA
:04135B0057AE58AF82
:06135F00590DBD00010E56
:051365008D578E588F2A
:03136A005980C1E6
:06136D0020040302142716
:04137300EBB5660070
:051377004003021427F1
:07137C00E566C39BF566ACBA
:011383006603
:0B1384008C051C8C66ED700302142524
:0C138F00758220C0041210DBD00480E93D
:0A139B00E56424FDF8886486050867
:0A13A500860608860718188D578E7B
:0413AF00588F59AD4D
:0413B30059BD8000A0
:0613B70040047A4380149B
:0313BD00BD600010
:0613C00040047A50800B8E
:0313C600BD400027
:0613C90040047A49800295
:0213CF007A584A
:0E13D1008A82C0021210DB75823A1210DB75A0
:0E13DF0082301210DB7582781210DBD002BA59
:0413ED004902800B26
:0513F100BA5002800665
:0613F60085588212111D52
:0813FC0085578212111D8023A8
:07140400D20875650A801C87
:05140B00756508801763
:0514100075650A801261
:05141500756510800D5B
:04141A00D20B800968
:07141E008A821210DB80023C
:021425008C66D3
:09142700300B5AE56424FCF8883E
:0C14300064860408860508860608860706
:08143C001818188C578D588E0A
:04144400598F5A75ED
:0314480057C07515
:03144B00581875B9
:02144E005980C3
:0414500085576885CF
:031454005869854F
:05145700596A74012533
:07145C0068FFE43569FCADF7
:041463006A8F578CA9
:04146700588D5985BE
:06146B006882856983859B
:0A1471006AF0121682FCFA70030202
:02147B00118AD4
:07147D008A821210DB80CC13
:07148400E565700302118A07
:04148B0075677C30D5
:07148F00092BE56414F88845
:0A14960064E6FD3395E0FEFFFC8DD7
:0414A000578E588F7C
:0414A400598C5A20E5
:0A14A8000862AC577D007E007F0053
:0514B2008C578D588EDF
:0514B700598F5A80501E
:0914BC00300A1FE56424FCF888E5
:0C14C50064860408860508860608860771
:0814D1001818188C578D588E75
:0514D900598F5A802E1E
:0A14DE00E56424FEF8886486040823
:0C14E800860518ED3395E0FEFF8C578D53
:0414F400588E598F26
:0514F8005A200810ACB1
:0814FD0057AD587E007F008C02
:04150500578D588E18
:03150900598F5A9D
:06150C00300825AC57ADCC
:0415120058AE59E591
:0C1516005AFF30E717C3E49CFCE49DFD85
:0A152200E49EFEE49FFF8C578D58F5
:06152C008E598F5A800267
:02153200C208ED
:06153400D20CA8677C0048
:0A153A00755B00856582C004C000E7
:0B154400121134D000D004200C0DE583
:0A154F005BC4FDE6FE4DF618886748
:0215590080020E
:02155B00A65B8D
:08155D000C8C03B20CE55745AC
:041565005845594547
:081569005A70CE88678C03E57F
:06157100667003756601BF
:0A157700200525200422EB04FCAD42
:011581006603
:04158200ECB50500BF
:0E1586005015758220C003C004C0051210DB92
:09159400D005D004D0031D80E550
:02159D008D6659
:0C159F0030080E75822DC0031210DBD046
:0515AB0003156680231A
:0C15B000EB602030060E75822BC0031289
:0815BC0010DBD0031566800F5F
:0C15C40030070C758220C0031210DBD031
:0315D0000315669A
:0515D300200425AC66B8
:0915D8008C051C8C66EBB50500C6
:0915E100502B3005047D3080021E
:0215EA007D2062
:0E15EC008D82C003C0041210DBD004D0038037
:0115FA00DD13
:0415FB00EBB56600E6
:0A15FF005008E566C39BF5668007FF
:0516090075660080027F
:02160E008C66E8
:02161000A867C9
:0A1612008B041BEC6026B20C200CC8
:0B161C000A08E6C4540FFC8C5B80073A
:071627008604740F5CF55B03
:0C162E00855B82C003C000121101D000D7
:04163A00D00380D485
:06163E0020040302118AE2
:02164400AB6693
:091646008B041BEC700302118AF5
:0C164F00758220C0031210DBD00380EB7A
:08165B008A821210DB02118AE1
:07166300855C82855D832296
:0B18C0003C4E4F20464C4F41543E0070
:04166A00AA82AB8322
:08166E001216826003A380F84C
:0C167600C3E5829AF582E5839BF5832290
:0300080075817C83
:0A000B0012169EE582600302000356
:0E16820020F71430F6148883A88220F507E6BE
:06169000A883758300220F
:03169600E280F7F8
:03169900E49322B5
:02169C00E0224A
:04169E00758200222F
:00000001FF
