:0400000002001332B5
:03000B000200C729
:03006C0002000E81
:05000E0012007C80FEE1
:0C006F00758921D28CD2AFD2A97508008F
:01007B002262
:0A007C001202D775820112013B1237
:0600860003FA12017812DA
:02008C00006F03
:0E008E0075B110E5B230E5F875B38275B200B9
:0A009C0085A309750A00AAA38A03D0
:0700A600E44209EB420AC02D
:0400AD0009C00A7408
:0A00B10059C0E0740AC0E07480C07A
:0C00BB00E012046AE58124FBF58180C797
:0C00C700C022C0E0C0F0C082C083C002B4
:0E00D300C003C004C005C006C007C000C001C5
:0C00E100C0D075D000758C3C758AB0054D
:0700ED00087406B5082B752D
:0A00F40008007582001201458582A4
:0500FE000985830A855D
:070103000A8312041985B103
:0C010A000B75B100A2B2B3E433F5A3758D
:08011600B34175B200850BB185
:0E011E00D0D0D001D000D007D006D005D0043C
:0D012C00D003D002D083D082D0F0D0E0D03C
:02013900223270
:0C0A59005072696A656D3A2025640A003D
:0A013B008582F675F20875F32022A4
:0D014500AA8253F3F874075A42F343F308FB
:0E015200E5F330E4FB53F3EFAAF5E4CA25E031
:0E016000CA33CA25E0CA33FB740355F4FC7D94
:0A016E0000EC2AF582ED3BF5832238
:0601780075AB01750C00DF
:0A017E0074F1250C4039E50CC4545F
:0E018800F0F5B175B30075B20075BC0075BD21
:0E0196000075BE0075BF0075C4FF75C5E0752D
:0801A400C60075C704750D00CB
:0A01AC0074F8250D400775A3000547
:0301B6000D80F3C6
:0401B900050C80C1F0
:0E01BD0075B40675B56E75B63C75AB0275B1BE
:0E01CB000075BC7775BD2075B11075BC9775B9
:0C01D900BD2075B38275B12075B13022D5
:0401E500AA82AB83BC
:0501E9001ABAFF011B22
:0501EE00EA4B70F7224E
:0D01F3009000011201E575A02F900001128F
:0E02000001E5D2A69000011201E5740F55A091
:0C020E00C454F0FAC2A630002390000196
:0E021A00C0021201E575A02F9000011201E54F
:0E022800D2A69000011201E5D002740F55A07D
:040236002AFAC2A638
:03023A008A822293
:0C023D00AA82A2AF9201C2AFEAC4540F23
:0E024900FB740F5BF5A0900001C0021201E5EE
:0E025700D2A69000011201E5D002C2A6740FDB
:0E0265005AF5A09000011201E5D2A69000010A
:050273001201E5C2A626
:0B027800D2001201F3E58220E7F6A29D
:040283000192AF2213
:0C028700AA82A2AF9202C2AFEAC4540FD8
:0E029300FB740F5B4410F5A0900001C0021236
:0E02A10001E5D2A69000011201E5D002C2A62E
:0E02AF00740F5A4410F5A09000011201E5D220
:0902BD00A69000011201E5C2A6A1
:0B02C600D2001201F3E58220E7F605EC
:0602D1000EA20292AF2212
:0D02D70075A000901F401201E575A0039076
:0E02E40000011201E5D2A69000011201E5C250
:0E02F200A69007D01201E575A003900001123E
:0D03000001E5D2A69000011201E5C2A69011
:0E030D0000321201E575A0039000011201E517
:0A031B00D2A69000011201E5C2A66F
:0C032500C2001201F3E58220E7F675A08B
:0D033100029000011201E5D2A69000011219
:04033E0001E5C2A66D
:0C034200C2001201F3E58220E7F675828C
:0E034E002812023D75820112023D75820612D0
:09035C00023D75820C12023D7590
:030365000E002265
:0C036800AA82BA0D117582C012023DE598
:05037400107003850F6D
:010379001073
:04037A00750F0022D9
:05037E00E4BA0A0104CD
:08038300FB70057410B50F5961
:0E038B00758201C002C00312023DD003D002F1
:05039900E510B50F00A6
:05039E005003850F1063
:0203A3007C00DC
:0403A500ECB51000A3
:0A03A900501FEC2400F582E434003C
:0E03B300F583E0F582C002C003C00412028789
:0903C100D004D003D0020C80DB53
:0E03CA007582C0C002C00312023DD003D002F3
:0A03D800E4F50FF510EB70198A82AE
:0203E200808415
:0603E400AB0F050FEB2436
:0A03EA0000F582E43400F583EAF028
:0503F4008A820202876D
:0103F90022E1
:0C03FA00C296C294C295D293D2957A00AC
:03040600BA100029
:090409005007D294C2940A80F459
:07041200D296C296C29722A8
:0A041900AA82AB83C295D2957C0045
:03042300BC0A0010
:0A0426005018EB035401FDB401006F
:0E0430009293EBCA25E0CA33FBD294C2940C1F
:02043E0080E359
:05044000D296C29622D5
:06004200E478FFF6D8FD92
:080020007900E94400601B7A3D
:0500280000900A707851
:03002D001075A0AB
:0A00300000E493F2A308B8000205F3
:08003A00A0D9F4DAF275A0FF71
:080048007800E84400600A7929
:030050000075A098
:0600530000E4F309D8FCF3
:080059007810E84400600C7906
:0B00610001900000E4F0A3D8FCD9FAE5
:06044500C01285811212B5
:05044B000368D012223D
:0804500085823285833385F0BB
:0504580034E4F52FF56E
:05045D0030753100853F
:03046200113590C1
:05046500044502052D15
:06046A00C012858112E5BD
:070470001224FBF535E4F551
:040477002FF530F538
:07047B0031E51224FBF886B5
:06048200320886330886F3
:05048800349004451250
:05048D00052DD0122234
:07049200AA82C025C026C0AC
:060499002774A9C0E07405
:06049F0004C0E0C023C010
:0404A500248A822201
:0A04A900158115811581052DE4B5BC
:0404B3002D02052EE3
:0104B7002222
:0B04B800AA8274302AFA7439B50200E1
:0C04C300500A74072AFA30030343022099
:0504CF008A8202049284
:0E04D400E582FAC4540FF582C0021204B8D0BB
:0904E20002740F5AF5820204B8FD
:0604EB00858213AB28AC72
:0404F10029AD2AAE59
:0404F5002BAF2C7588
:0204F9001420CD
:0E04FB00EF2FFFEE235401FA4207EB2BFBEC30
:0C05090033FCED33FDEE33FEEFB51300C4
:0A0515004008EFC39513FF430301F4
:06051F00D514D98B288CD5
:04052500298D2A8E64
:040529002B8F2C22C6
:07052D0085822385832485EC
:030534002F2585EB
:03053700302685E6
:04053A003127E4F58C
:03053E002DF52E6A
:05054100AA32AB33AC4F
:0C054600348A828B838CF0120A39FD7419
:09055200012AF532E43BF5338C7B
:08055B0034EDFA7003020A1AE4
:05056300BA250280032F
:03056800020A1272
:05056B00C204C205C23C
:0405700006C207C2F6
:0405740008C209C2EE
:040578000AC20B7533
:08057C0036007537007DFFAE6B
:0405840032AF33ABB4
:01058800343E
:0E0589008E828F838BF0120A39FAA3AE82AFF6
:06059700838E328F338BCE
:0B059D0034BA25078A8212049280996C
:0505A8008A04BC3000D4
:0905AD0040288A047439B50400E9
:0C05B600401FBDFF11E53775F00AA42AB4
:0A05C20024D0F53770C1D20580BDCA
:0B05CC00ED75F00AA42A24D0FD80B2D7
:0A05D700BA2E07BDFFAC7D0080A81E
:0505E1008A04BC61006A
:0905E60040108A04747AB5040087
:0905EF0040075302DFD203800231
:0205F800C2033C
:0505FA00BA200280554B
:0505FF00BA2B02804B45
:05060400BA2D02804147
:05060900BA4202804B23
:05060E00BA4302805018
:06061300BA44030207BB1C
:06061900BA46030207D1FE
:06061F00BA49030207BB0B
:05062500BA4C02803414
:06062A00BA4F030207C2F3
:06063000BA50030207525C
:05063600BA5302804CE4
:06063B00BA55030207C7D7
:06064100BA58030207CCC9
:030647000207D5D2
:05064A00D20402058945
:05064F00D2060205893E
:05065400D20702058938
:05065900D20902058931
:05065E00D20A0205892B
:0806630030090AE53514F8889E
:05066B00358602800F3E
:0A067000E53524FEF88835860308FE
:05067A008604188B024C
:08067F008A821204920207DED8
:0A068700E53524FDF88835860308E8
:0A069100860408860618188B288CD2
:0A069B00298E2A8B828C838EF0C01A
:0E06A50005120A21AB82AC83D005BDFF028B8B
:0106B3000541
:0706B40020042CEBB5370018
:0906BB005026E537C39BF537AC6E
:0106C40037FE
:0C06C5008C061C8C37EE6014758220C07F
:0E06D10003C004C005120492D005D004D0036B
:0206DF0080E4B5
:0206E1008C3754
:0206E3008D0484
:0706E5008528828529838529
:0C06EC002AF0120A39FDFA602F8C051C60
:0E06F800C374808DF063F08095F050208A82EC
:0C070600C003C004120492D004D003AD64
:0407120028AE29AF35
:060716002A0DBD00010EDA
:05071C008D288E298FDD
:030721002A80C16A
:060724002004030207DEC1
:04072A00EBB53700F4
:05072E0040030207DE9C
:07073300E537C39BF537AC6D
:01073A003787
:0B073B008C051C8C37ED70030207DCFE
:0C074600758220C004120492D00480E9E7
:0A075200E53524FDF888358605081A
:0A075C00860608860718188D288EFF
:04076600298F2AAD00
:04076A002ABD800024
:06076E0040047A438014F0
:03077400BD600065
:0607770040047A50800BE3
:03077D00BD40007C
:0607800040047A498002EA
:020786007A589F
:0E0788008A82C00212049275823A120492759F
:0E0796008230120492758278120492D002BA58
:0407A4004902800B7B
:0507A800BA50028006BA
:0607AD008529821204D42C
:0807B3008528821204D4802382
:0707BB00D20875360A801C0C
:0507C2007536088017E8
:0507C70075360A8012E6
:0507CC00753610800DE0
:0407D100D20B8009BE
:0707D5008A821204928002E7
:0207DC008C3758
:0907DE00300B5AE53524FCF888C3
:0C07E7003586040886050886060886078B
:0807F3001818188C288D298EBE
:0407FB002A8F2B75A1
:0307FF00286575F5
:03080200290A754B
:020805002A8047
:040807008528398582
:03080B00293A8502
:05080E002A3B740125E6
:0708130039FFE4353AFCADAA
:04081A003B8F288C5C
:04081E00298D2A8571
:060822003982853A83854E
:0A0828003BF0120A39FCFA700302DB
:0208320005417E
:070834008A8212049280CCBD
:07083B00E5367003020541E0
:0408420075381A30BB
:07084600092BE53514F888C9
:0A084D0035E6FD3395E0FEFFFC8D5B
:04085700288E298F2F
:04085B002A8C2B2098
:0A085F000862AC287D007E007F00D7
:050869008C288D298E92
:05086E002A8F2B8050D1
:09087300300A1FE53524FCF88869
:0C087C00358604088605088606088607F5
:080888001818188C288D298E28
:050890002A8F2B802ED1
:0A089500E53524FEF88835860408D6
:0C089F00860518ED3395E0FEFF8C288DD7
:0408AB00298E2A8FD9
:0508AF002B200810AC35
:0808B40028AD297E007F008CB5
:0408BC00288D298ECC
:0308C0002A8F2B51
:0608C300300825AC28AD51
:0408C90029AE2AE545
:0C08CD002BFF30E717C3E49CFCE49DFD0A
:0A08D900E49EFEE49FFF8C288D29A9
:0608E3008E2A8F2B80021B
:0208E900C20843
:0608EB00D20CA8387C00CD
:0A08F100752C00853682C004C0009B
:0B08FB001204EBD000D004200C0DE52F
:0A0906002CC4FDE6FE4DF6188838FB
:02091000800263
:02091200A62C11
:080914000C8C03B20CE5284530
:04091C0029452A45FA
:080920002B70CE88388C03E532
:0609280037700375370172
:0A092E00200525200422EB04FCAD97
:010938003787
:04093900ECB5050014
:0E093D005015758220C003C004C0051204923C
:09094B00D005D004D0031D80E5A5
:020954008D37DD
:0C09560030080E75822DC003120492D0F0
:0509620003153780239E
:0C096700EB602030060E75822BC00312DE
:080973000492D0031537800F38
:0C097B0030070C758220C003120492D0DB
:030987000315371E
:05098A00200425AC373C
:09098F008C051C8C37EBB505004A
:09099800502B3005047D30800273
:0209A1007D20B7
:0E09A3008D82C003C004120492D004D00380E1
:0109B100DD68
:0409B200EBB537006A
:0A09B6005008E537C39BF5378007B2
:0509C000753700800204
:0209C5008C376D
:0209C700A8384E
:0A09C9008B041BEC6026B20C200C1E
:0B09D3000A08E6C4540FFC8C2C8007BF
:0709DE008604740F5CF52C88
:0C09E500852C82C003C0001204B8D000B2
:0409F100D00380D4DB
:0609F5002004030205418D
:0209FB00AB3718
:0909FD008B041BEC7003020541A0
:0C0A0600758220C003120492D00380EB24
:080A12008A82120492020541E0
:070A1A00852D82852E832249
:0B0A65003C4E4F20464C4F41543E00D9
:040A2100AA82AB8377
:080A2500120A396003A380F8F6
:0C0A2D00C3E5829AF582E5839BF58322E5
:0300130075813BB9
:0A001600120A55E582600302000E95
:0E0A390020F71430F6148883A88220F507E613
:060A4700A8837583002264
:030A4D00E280F74D
:030A5000E493220A
:020A5300E0229F
:040A55007582002284
:00000001FF
