:0400000002001332B5
:03000B000200A947
:03006C0002000E81
:05000E0012007C80FEE1
:0C006F00758921D28CD2AFD2A97508008F
:01007B002262
:0A007C001202D07582011201341245
:0600860003F312017112E8
:02008C00006F03
:0E008E0075B110E5B230E5F8E5A330E004C22C
:03009C00C480021B
:02009F00D2C4C9
:0800A10075B20075B38180E522
:0C00A900C022C0E0C0F0C082C083C002D2
:0E00B500C003C004C005C006C007C000C001E3
:0E00C300C0D075D000AAB1758C3C758AB0050E
:0700D100087406B5083E7536
:0C00D8000800758200C00212013E858203
:0500E4000985830A8577
:0900E9000A8312041275B10085AE
:0600F20009A3850AA3C06A
:0400F80009C00A74BD
:0A00FC0052C0E0740AC0E07480C036
:0E010600E0120463E58124FBF581D00275B39D
:0101140042A8
:0E0115008AB1D0D0D001D000D007D006D005DE
:0E012300D004D003D002D083D082D0F0D0E040
:03013100D02232A7
:0D0A52005679736C616E69202564200A00DE
:0A0134008582F675F20875F32022AB
:0D013E00AA8253F3F874075A42F343F30802
:0E014B00E5F330E4FB53F3EFAAF5E4CA25E038
:0E015900CA33CA25E0CA33FB740355F4FC7D9B
:0A01670000EC2AF582ED3BF583223F
:0601710075AB01750B00E7
:0A01770074F1250B4039E50BC45468
:0E018100F0F5B175B30075B20075BC0075BD28
:0E018F000075BE0075BF0075C4FF75C5E07534
:08019D00C60075C704750C00D3
:0A01A50074F8250C400775A300054F
:0301AF000C80F3CE
:0401B200050B80C1F8
:0E01B60075B40675B56E75B63C75AB0275B1C5
:0E01C4000075BC7875BD6075B11075BC947582
:0C01D200BD6075B38175B12075B130229D
:0401DE00AA82AB83C3
:0501E2001ABAFF011B29
:0501E700EA4B70F72255
:0D01EC009000011201DE75A02F900001129D
:0E01F90001DED2A69000011201DE740F55A0A7
:0C020700C454F0FAC2A63000239000019D
:0E021300C0021201DE75A02F9000011201DE64
:0E022100D2A69000011201DED002740F55A08B
:04022F002AFAC2A63F
:030233008A82229A
:0C023600AA82A2AF9201C2AFEAC4540F2A
:0E024200FB740F5BF5A0900001C0021201DEFC
:0E025000D2A69000011201DED002C2A6740FE9
:0E025E005AF5A09000011201DED2A690000118
:05026C001201DEC2A634
:0B027100D2001201ECE58220E7F6A2AB
:04027C000192AF221A
:0C028000AA82A2AF9202C2AFEAC4540FDF
:0E028C00FB740F5B4410F5A0900001C002123D
:0E029A0001DED2A69000011201DED002C2A643
:0E02A800740F5A4410F5A09000011201DED22E
:0902B600A69000011201DEC2A6AF
:0B02BF00D2001201ECE58220E7F605FA
:0602CA000DA20292AF221A
:0D02D00075A000901F401201DE75A0039084
:0E02DD0000011201DED2A69000011201DEC265
:0E02EB00A69007D01201DE75A003900001124C
:0D02F90001DED2A69000011201DEC2A69027
:0E03060000321201DE75A0039000011201DE2C
:0A031400D2A69000011201DEC2A67D
:0C031E00C2001201ECE58220E7F675A099
:0D032A00029000011201DED2A69000011227
:0403370001DEC2A67B
:0C033B00C2001201ECE58220E7F675829A
:0E0347002812023675820112023675820612E5
:09035500023675820C12023675A5
:03035E000D00226D
:0C036100AA82BA0D117582C0120236E5A6
:05036D000F7003850E76
:010372000F7B
:04037300750E0022E1
:05037700E4BA0A0104D4
:08037C00FB70057410B50E5969
:0E038400758201C002C003120236D003D002FF
:05039200E50FB50E00AF
:050397005003850E0F6C
:02039C007C00E3
:04039E00ECB50F00AB
:0A03A200501FEC2400F582E4340043
:0E03AC00F583E0F582C002C003C00412028097
:0903BA00D004D003D0020C80DB5A
:0E03C3007582C0C002C003120236D003D00201
:0A03D100E4F50EF50FEB70198A82B7
:0203DB0080841C
:0603DD00AB0E050EEB243F
:0A03E30000F582E43400F583EAF02F
:0503ED008A820202807B
:0103F20022E8
:0C03F300C296C294C295D293D2957A00B3
:0303FF00BA100031
:090402005007D294C2940A80F460
:07040B00D296C296C29722AF
:0A041200AA82AB83C295D2957C004C
:03041C00BC0A0017
:0A041F005018EB035401FDB4010076
:0E0429009293EBCA25E0CA33FBD294C2940C26
:0204370080E360
:05043900D296C29622DC
:06004200E478FFF6D8FD92
:080020007900E94400601B7A3D
:0500280000900A6A7857
:03002D001075A0AB
:0A00300000E493F2A308B8000205F3
:08003A00A0D9F4DAF275A0FF71
:080048007800E84400600A7929
:030050000075A098
:0600530000E4F309D8FCF3
:080059007810E84400600C7906
:0B00610001900000E4F0A3D8FCD9FAE5
:06043E00C01185811112BE
:050444000361D011224C
:0804490085823285833385F0C2
:0504510034E4F52FF575
:05045600307531008546
:03045B00103590C9
:05045E00043E0205262A
:06046300C011858111E5C6
:070469001124FBF535E4F559
:040470002FF530F53F
:0704740031E51124FBF886BD
:06047B00320886330886FA
:050481003490043E125E
:050486000526D0112243
:07048B00AA82C025C026C0B3
:060492002774A2C0E07413
:0604980004C0E0C023C017
:04049E00248A822208
:0A04A200158115811581052DE4B5C3
:0404AC002D02052EEA
:0104B0002229
:0B04B100AA8274302AFA7439B50200E8
:0C04BC00500A74072AFA300303430220A0
:0504C8008A8202048B92
:0E04CD00E582FAC4540FF582C0021204B1D0C9
:0904DB0002740F5AF5820204B10B
:0604E400858212AB28AC7A
:0404EA0029AD2AAE60
:0404EE002BAF2C758F
:0204F2001320D5
:0E04F400EF2FFFEE235401FA4207EB2BFBEC37
:0C05020033FCED33FDEE33FEEFB51200CC
:0A050E004008EFC39512FF430301FC
:06051800D513D98B288CDD
:04051E00298D2A8E6B
:040522002B8F2C22CD
:0705260085822385832485F3
:03052D002F2585F2
:03053000302685ED
:040533003127E4F593
:030537002DF52E71
:05053A00AA32AB33AC56
:0C053F00348A828B838CF0120A32FD7427
:09054B00012AF532E43BF5338C82
:0805540034EDFA7003020A13F2
:05055C00BA2502800336
:03056100020A0B80
:05056400C204C205C243
:0405690006C207C2FD
:04056D0008C209C2F5
:040571000AC20B753A
:0805750036007537007DFFAE72
:04057D0032AF33ABBB
:010581003445
:0E0582008E828F838BF0120A32FAA3AE82AF04
:06059000838E328F338BD5
:0B05960034BA25078A8212048B80997A
:0505A1008A04BC3000DB
:0905A60040288A047439B50400F0
:0C05AF00401FBDFF11E53775F00AA42ABB
:0A05BB0024D0F53770C1D20580BDD1
:0B05C500ED75F00AA42A24D0FD80B2DE
:0A05D000BA2E07BDFFAC7D0080A825
:0505DA008A04BC610071
:0905DF0040108A04747AB504008E
:0905E80040075302DFD203800238
:0205F100C20343
:0505F300BA2002805552
:0505F800BA2B02804B4C
:0505FD00BA2D0280414F
:05060200BA4202804B2A
:05060700BA430280501F
:06060C00BA44030207B42A
:06061200BA46030207CA0C
:06061800BA49030207B419
:05061E00BA4C0280341B
:06062300BA4F030207BB01
:06062900BA500302074B6A
:05062F00BA5302804CEB
:06063400BA55030207C0E5
:06063A00BA58030207C5D7
:030640000207CEE0
:05064300D20402058253
:05064800D2060205824C
:05064D00D20702058246
:05065200D2090205823F
:05065700D20A02058239
:08065C0030090AE53514F888A5
:05066400358602800F45
:0A066900E53524FEF8883586030805
:050673008604188B0253
:080678008A8212048B0207D7ED
:0A068000E53524FDF88835860308EF
:0A068A00860408860618188B288CD9
:0A069400298E2A8B828C838EF0C021
:0E069E0005120A1AAB82AC83D005BDFF028B99
:0106AC000548
:0706AD0020042CEBB537001F
:0906B4005026E537C39BF537AC75
:0106BD003705
:0C06BE008C061C8C37EE6014758220C086
:0E06CA0003C004C00512048BD005D004D00379
:0206D80080E4BC
:0206DA008C375B
:0206DC008D048B
:0706DE008528828529838530
:0C06E5002AF0120A32FDFA602F8C051C6E
:0E06F100C374808DF063F08095F050208A82F3
:0C06FF00C003C00412048BD004D003AD73
:04070B0028AE29AF3C
:06070F002A0DBD00010EE1
:050715008D288E298FE4
:03071A002A80C171
:06071D002004030207D7CF
:04072300EBB53700FB
:0507270040030207D7AA
:07072C00E537C39BF537AC74
:01073300378E
:0B0734008C051C8C37ED70030207D50C
:0C073F00758220C00412048BD00480E9F5
:0A074B00E53524FDF8883586050821
:0A075500860608860718188D288E06
:04075F00298F2AAD07
:040763002ABD80002B
:0607670040047A438014F7
:03076D00BD60006C
:0607700040047A50800BEA
:03077600BD400083
:0607790040047A498002F1
:02077F007A58A6
:0E0781008A82C00212048B75823A12048B75B4
:0E078F00823012048B75827812048BD002BA6D
:04079D004902800B82
:0507A100BA50028006C1
:0607A6008529821204CD3A
:0807AC008528821204CD802390
:0707B400D20875360A801C13
:0507BB007536088017EF
:0507C00075360A8012ED
:0507C500753610800DE7
:0407CA00D20B8009C5
:0707CE008A8212048B8002F5
:0207D5008C375F
:0907D700300B5AE53524FCF888CA
:0C07E00035860408860508860608860792
:0807EC001818188C288D298EC5
:0407F4002A8F2B75A8
:0307F800285F7502
:0307FB00290A7553
:0207FE002A804F
:040800008528398589
:03080400293A8509
:050807002A3B740125ED
:07080C0039FFE4353AFCADB1
:040813003B8F288C63
:04081700298D2A8578
:06081B003982853A838555
:0A0821003BF0120A32FCFA700302E9
:02082B00053A8C
:07082D008A8212048B80CCCB
:07083400E536700302053AEE
:04083B0075381930C3
:07083F00092BE53514F888D0
:0A08460035E6FD3395E0FEFFFC8D62
:04085000288E298F36
:040854002A8C2B209F
:0A0858000862AC287D007E007F00DE
:050862008C288D298E99
:050867002A8F2B8050D8
:09086C00300A1FE53524FCF88870
:0C087500358604088605088606088607FC
:080881001818188C288D298E2F
:050889002A8F2B802ED8
:0A088E00E53524FEF88835860408DD
:0C089800860518ED3395E0FEFF8C288DDE
:0408A400298E2A8FE0
:0508A8002B200810AC3C
:0808AD0028AD297E007F008CBC
:0408B500288D298ED3
:0308B9002A8F2B58
:0608BC00300825AC28AD58
:0408C20029AE2AE54C
:0C08C6002BFF30E717C3E49CFCE49DFD11
:0A08D200E49EFEE49FFF8C288D29B0
:0608DC008E2A8F2B800222
:0208E200C2084A
:0608E400D20CA8387C00D4
:0A08EA00752C00853682C004C000A2
:0B08F4001204E4D000D004200C0DE53D
:0A08FF002CC4FDE6FE4DF618883803
:0209090080026A
:02090B00A62C18
:08090D000C8C03B20CE5284537
:0409150029452A4501
:080919002B70CE88388C03E539
:0609210037700375370179
:0A092700200525200422EB04FCAD9E
:01093100378E
:04093200ECB505001B
:0E0936005015758220C003C004C00512048B4A
:09094400D005D004D0031D80E5AC
:02094D008D37E4
:0C094F0030080E75822DC00312048BD0FE
:05095B000315378023A5
:0C096000EB602030060E75822BC00312E5
:08096C00048BD0031537800F46
:0C09740030070C758220C00312048BD0E9
:0309800003153725
:05098300200425AC3743
:090988008C051C8C37EBB5050051
:09099100502B3005047D3080027A
:02099A007D20BE
:0E099C008D82C003C00412048BD004D00380EF
:0109AA00DD6F
:0409AB00EBB5370071
:0A09AF005008E537C39BF5378007B9
:0509B90075370080020B
:0209BE008C3774
:0209C000A83855
:0A09C2008B041BEC6026B20C200C25
:0B09CC000A08E6C4540FFC8C2C8007C6
:0709D7008604740F5CF52C8F
:0C09DE00852C82C003C0001204B1D000C0
:0409EA00D00380D4E2
:0609EE0020040302053A9B
:0209F400AB371F
:0909F6008B041BEC700302053AAE
:0C09FF00758220C00312048BD00380EB33
:080A0B008A8212048B02053AF5
:070A1300852D82852E832250
:0B0A5F003C4E4F20464C4F41543E00DF
:040A1A00AA82AB837E
:080A1E00120A326003A380F804
:0C0A2600C3E5829AF582E5839BF58322EC
:0300130075813BB9
:0A001600120A4EE582600302000E9C
:0E0A320020F71430F6148883A88220F507E61A
:060A4000A883758300226B
:030A4600E280F754
:030A4900E4932211
:020A4C00E022A6
:040A4E00758200228B
:00000001FF
