:0400000002001332B5
:03000B000201AC43
:03006C0002000E81
:05000E001200B380FEAA
:0C006F00758911D28CD2AFD2A97509009E
:01007B002262
:0D007C0075985075CBFF75CADF75C834222A
:08008900AA82AB83ACF0AD6C60
:0D0091008D061DEE601B8A828B838CF012A1
:0D009E001673FEA3AA82AB8374804EF59901
:0500AB0010990280FB2A
:0200B00080DFEF
:0100B200222B
:0700B300E4F50AF50BE4F58A
:0400BA000CF50D1222
:0900BE0004107582011202E11226
:0600C700007C12006F75C1
:0200CD00080029
:0D00CF003098FD747F5599FAC2987401B500
:0A00DC000812BA3A0F750802E4F5A5
:0400E6000CF50D9078
:0600EA000000EAF080DFD7
:0A00F0007402B508DABA3A07E4F525
:0500FA000CF50D80086B
:0700FF00050CE4B50C02053D
:010106000DEB
:07010700E50C2400F582E580
:0A010E000D3400F583EAF0BA0AB7D9
:07011800E50C24FCF56C90DE
:0B011F00000175F000120872AA82E5D2
:05012A000C2400FBE5C0
:0A012F000D3400FCEB24FDFBEC3462
:0D013900FFFC7D008B828C838DF0C00212D4
:0C0146000614AB82D002EAB5030280155B
:0A0152007493C0E07416C0E07480DE
:0B015C00C0E01210A415811581158170
:0E01670090000375F000120614AA82BA03314C
:0A01750090000575F00012061490CA
:0A017F00000775F000120653858298
:050189000E85830FC08C
:04018E000EC00F741C
:0A019200A0C0E07416C0E07480C045
:0A019C00E01210A4E58124FBF581B8
:0601A6007508000200CF05
:0C01AC00C022C0E0C0F0C082C083C002CE
:0E01B800C003C004C005C006C007C000C001DF
:0E01C600C0D075D000758DE6758B38C28FD213
:0A01D4008E050974F92509400302A5
:0201DE0002AB72
:0701E000E50860030202AB19
:0601E700750900B20030B2
:0901ED00003620B20875100075FF
:0401F60011FF800570
:0501FA00E4F510F51111
:0401FF0075360075DC
:030203003701754B
:070206003800753105E4F535
:04020D0032F533850E
:0302110010348521
:0602140011357582011294
:07021A000937AA828A0A7568
:040221000B0080242A
:04022500752E0075BD
:030229002F01752D
:07022C003000752903E4F521
:040233002AF52B7508
:090237002C01752D0075820112E5
:07024000089CAA828A0A75DE
:020247000B00AA
:06024900E50A14F56C90BB
:09024F00010175F000120872E5CE
:050258000A2400FAE594
:05025D000B3401FB8AD7
:04026200238B247551
:0B0266002500120716AA827B00EA2583
:050271000AF50AEB355F
:040276000BF50BE594
:05027A000A2400FAE572
:0A027F000B3401FB7C008A828B83A4
:0C0289008CF012085FAA827B00EA250AB4
:06029500F50AEB350BF544
:03029B000B850AC6
:08029E006C90010075F00012E4
:0502A60000897508014C
:0A02AB007411B509147401B50802BE
:0202B5008005C2
:0502B7007402B5080807
:0802BC00750900B2C2750800CB
:0E02C400D0D0D001D000D007D006D005D00495
:0D02D200D003D002D083D082D0F0D0E0D095
:0202DF002232C9
:0D1693000A436879626E65204C52430A00DC
:0E16A0000A4D61737465720A506F7420686F92
:0716AE00642E3A20256400C0
:0A02E1008582F675F20175F3202204
:0D02EB00AA8253F3F874075A42F343F30854
:0E02F800E5F330E4FB53F3EFAAF5E4CA25E08A
:0E030600CA33CA25E0CA33FB740355F4FC7DEC
:0A03140000EC2AF582ED3BF5832290
:04031E00AA82AB8381
:050322001ABAFF011BE7
:05032700EA4B70F72213
:0D032C0090000112031E75A02F9000011219
:0E033900031ED2A690000112031E740F55A0E1
:0C034700C454F0FAC2A63001239000015B
:0E035300C00212031E75A02F90000112031E9F
:0E036100D2A690000112031ED002740F55A008
:04036F002AFAC2A6FE
:030373008A822259
:0C037600AA82A2AF9202C2AFEAC4540FE8
:0E038200FB740F5BF5A0900001C00212031E79
:0E039000D2A690000112031ED002C2A6740F66
:0E039E005AF5A090000112031ED2A690000195
:0503AC0012031EC2A6B1
:0B03B100D20112032CE58220E7F6A227
:0403BC000292AF22D8
:0C03C000AA82A2AF9203C2AFEAC4540F9D
:0E03CC00FB740F5B4410F5A0900001C00212FC
:0E03DA00031ED2A690000112031ED002C2A67E
:0E03E800740F5A4410F5A090000112031ED2AB
:0903F600A690000112031EC2A62C
:0B03FF00D20112032CE58220E7F60576
:06040A0012A20392AF22D2
:0D04100075A000901F4012031E75A0039000
:0E041D00000112031ED2A690000112031EC29F
:0E042B00A69007D012031E75A00390000112C8
:0D043900031ED2A690000112031EC2A69061
:0E044600003212031E75A00390000112031E67
:0A045400D2A690000112031EC2A6FA
:0C045E00C20112032CE58220E7F675A015
:0D046A000290000112031ED2A690000112A4
:04047700031EC2A6F8
:0C047B00C20112032CE58220E7F6758216
:0E048700281203767582011203767582061222
:09049500037675820C12037675E2
:03049E0012002227
:0C04A100AA82BA0D117582C0120376E524
:0504AD0014700385132B
:0104B2001435
:0404B300751300229B
:0504B700E4BA0A010493
:0804BC00FB70057410B5135923
:0E04C400758201C002C003120376D003D0027D
:0504D200E514B5130064
:0504D700500385131421
:0204DC007C00A2
:0404DE00ECB5140065
:0A04E200501FEC2400F582E4340200
:0E04EC00F583E0F582C002C003C0041203C015
:0904FA00D004D003D0020C80DB19
:0E0503007582C0C002C003120376D003D0027E
:0A051100E4F513F514EB70198A826B
:02051B008084DA
:06051D00AB130513EB24F3
:0A05230000F582E43402F583EAF0EB
:05052D008A820203C0F8
:0105320022A6
:0C053300C296C294C295D293D2957A0071
:03053F00BA1000EF
:090542005007D294C2940A80F41F
:07054B00D296C296C297226E
:0A055200AA82AB83C295D2957C000B
:03055C00BC0A00D6
:0A055F005018EB035401FDB4010035
:0E0569009293EBCA25E0CA33FBD294C2940CE5
:0205770080E31F
:05057900D296C296229B
:0E057E00AA82AB83ACF0121673FE7D000ABA9F
:03058C0000010B60
:0E058F008A828B838CF01216737B004DF582EE
:05059D00EB4EF5832286
:0905A200AA82AB83AC6CAD6DAE16
:0B05AB006E8B078C828D838EF0EF12A8
:0A05B600106674012CF56CE43DF5AD
:0405C0006D8E6EAC22
:0405C4006CAD6DAEFF
:0C05C8006E8C828D838EF0EA1210667536
:0305D4008202227E
:0505D700AA82BA300009
:0705DC00400D7439B5020067
:0805E3004006EA24D0F5822253
:0305EB00BA410012
:0705EE00400D7446B5020048
:0805F500400674C92AF58222B8
:0405FD007582FF22E2
:05060100AA82BA0A0004
:08060600500674302AF582222F
:06060E0074372AF5822278
:0E061400AA82AB83ACF0121673F582C002C04E
:0E06220003C0041205D7AD82D004D003D0026D
:0A063000EDC454F0FD0ABA00010BFE
:0E063A008A828B838CF0121673F582C0051233
:0B06480005D7AA82D005EA4DF58222FA
:0E065300AA82AB83ACF0121673F582C002C00F
:0E06610003C0041205D7AD82D004D003D0022E
:0E066F00EDC454F0FE7D0074012AFFE43BF858
:0E067D008C018F82888389F0121673F582C07B
:0E068B0002C003C004C005C0061205D7AF822E
:0E069900D006D005D004D003D0028F00E4427A
:0E06A70005E8420674022AFFE43BF88C018F3E
:0E06B50082888389F0121673F582C002C0039A
:0E06C300C004C005C0061205D7AF82D006D015
:0E06D10005D004D003D002E4C454F0CFC4CF4F
:0E06DF006FCF54F0CF6FF8EF4205E84206747B
:0D06ED00032AFAE43BFB8A828B838CF01217
:0E06FA001673F582C005C0061205D7AA82D07D
:0E07080006D0057B00EA4DF582EB4EF583220C
:07071600AA82AB23AC24AD65
:0C071D0025EAC4540FF582C002C003C0DE
:0E07290004C005120601AE82D005D004D00334
:0E073700D0028B828C838DF0EE12106674015E
:080745002BF523E43CF5248DA3
:04074D0025AB23AC09
:0A07510024AD25740F5AF582C00391
:0E075B00C004C005120601AA82D005D004D049
:0E076900038B828C838DF0EA1210667582027B
:01077700225F
:09077800AA82AB83AC26AD27AECA
:0C07810028EBC4540FF582C002C003C076
:0E078D0004C005C006120601AF82D006D005DA
:0E079B00D004D0038C828D838EF0EF12106696
:0A07A90074012CF526E43DF5278EBF
:0407B30028AC26AD9B
:0A07B70027AE288B07740F5FF58250
:0E07C100C003C004C005C006120601AF82D0FE
:0E07CF0006D005D004D003D0028C828D838E1C
:0C07DD00F0EF12106674012CF526E43DCC
:0507E900F5278E28AC8D
:0407EE0026AD27AE5F
:0C07F200288A07EBC4CFC4540F6FCF540B
:0E07FE000FCF6FCF53070F8F82C002C003C012
:0E080C0004C005C006120601AF82D006D0055A
:0E081A00D004D003D0028C828D838EF0EF12BA
:0A082800106674012CF526E43DF57E
:04083200278E28AC39
:0408360026AD27AE16
:0C083A002853020F8A82C004C005C006CB
:0E084600120601AA82D006D005D0048C828D45
:0B085400838EF0EA1210667582042209
:0D085F00ACF0740D121066A38CF0740A1238
:06086C00106675820222F5
:0A087200AA82AB83ACF07D00AE6CEF
:0D087C008E071EEF60148A828B838CF012B1
:0D0889001673FFA3AA82AB83EF2DFD80E65E
:06089600C3E49DF582227F
:07089C00AA82AB2EAC2FADC8
:0C08A300308B828C838DF0743A1210664A
:0A08AF0074012BF523E43CF5248DC1
:0C08B900258A82C003C004C00512071687
:0C08C500AA82D005D004D0030AEA2BF56B
:0608D10023E43CF5248D38
:0A08D70025852982C002C003C00479
:0E08E100C005120716AE82D005D004D003D099
:0A08EF0002EE2AFA2BF526E43CF590
:0408F900278D28859A
:0A08FD002A82852B83C002C003C0CD
:0E09070004C005120778AE82D005D004D003DC
:0B091500D002EE2AFA2BF526E43CF598
:04092000278D288572
:080924002C82852D83C0021214
:0B092C000778AB82D002EB2AF5822294
:07093700AA82AB36AC37AD1C
:0C093E00388B828C838DF0743A121066A6
:0A094A0074012BF523E43CF5248D25
:0C095400258A82C003C004C005120716EB
:0C096000AA82D005D004D0030AEA2BF5CF
:06096C0023E43CF5248D9C
:0A09720025853182C002C003C004D5
:0E097C00C005120716AE82D005D004D003D0FD
:0A098A0002EE2AFA2BF526E43CF5F4
:04099400278D2885FE
:0A0998003282853383C002C003C021
:0E09A20004C005120778AE82D005D004D00341
:0B09B000D002EE2AFA2BF526E43CF5FD
:0409BB00278D2885D7
:0809BF003482853583C0021269
:0B09C7000778AB82D002EB2AF58222F9
:0709D200AA82AB41AC42AD6B
:0C09D900438B828C838DF0743A12106600
:0A09E50074012BF523E43CF5248D8A
:0C09EF00258A82C003C004C00512071650
:0C09FB00AA82D005D004D003EA04F54421
:080A07002BF523E43CF5248DDE
:0A0A0F0025853982C003C004C0052C
:0D0A1900120716AE82D005D004D003EE25E2
:050A260044F5442BF52E
:060A2B0026E43CF5278DD6
:050A310028853A8285D2
:0C0A36003B83C003C004C005120778AE6B
:0B0A420082D005D004D003EE2544F55F
:070A4D00442BF526E43CF503
:040A5400278D28853D
:0A0A58003C82853D83C003C004C04A
:0E0A620005120778AE82D005D004D003EE2531
:060A700044F544740FB5CB
:040A76003902800CB5
:0A0A7A007410B53922E53C25E0FEBA
:020A8400801DD3
:0A0A86007407253CFFE4353DC4234E
:0E0A9000CFC423541F6FCF541FCF6FCFF88FEA
:030A9E00068002CD
:020AA1007E00D5
:080AA300E5442BF523E43CF5CA
:0A0AAB00248D258E82C003C004C014
:0E0AB50005C006120716AF82D006D005D00489
:080AC300D003EF2544F544AF18
:040ACB003EA83FA959
:010ACF0040E6
:0D0AD0008E021EEA60448F82888389F01236
:0C0ADD001673FAA3AF82A883E5442BF542
:060AE90023E43CF5248D1E
:0C0AEF00258A82C003C004C005C006C0F8
:0E0AFB0007C000C001120716AA82D001D00069
:0C0B0900D007D006D005D004D003EA25A8
:050B150044F54480B628
:040B1A00854482226A
:070B1E00AA82AB4AAC4BAD0B
:0C0B25004C8B828C838DF0743A121066A9
:0A0B310074012BF523E43CF5248D3C
:0C0B3B00258A82C003C004C00512071602
:0C0B4700AA82D005D004D003EA04F54DCA
:080B53002BF523E43CF5248D91
:0A0B5B0025854582C003C004C005D3
:0D0B6500120716AE82D005D004D003EE2595
:050B72004DF54D2BF5CF
:060B770023E43CF5248D8F
:0A0B7D0025854682C003C004C005B0
:0D0B8700120716AE82D005D004D003EE2573
:040B94004DF54DAE20
:040B980047AF48A873
:030B9C0049A9461E
:0D0B9F00890219EA60448E828F8388F0126B
:0C0BAC001673FAA3AE82AF83E54D2BF563
:060BB80023E43CF5248D4E
:0C0BBE00258A82C003C004C005C006C028
:0E0BCA0007C000C001120716AA82D001D00099
:0C0BD800D007D006D005D004D003EA25D9
:050BE4004DF54D80B647
:040BE900854D822292
:070BED00AA82AB50AC51AD30
:0C0BF400528B828C838DF0743A121066D4
:0A0C000074012BF523E43CF5248D6C
:0C0C0A00258A82C003C004C00512071632
:0C0C1600AA82D005D004D0030AEA2BF516
:060C220023E43CF5248DE3
:0A0C280025854E82C002C003C004FF
:0E0C3200C005120716AE82D005D004D003D044
:0A0C400002EE2AFA2BF523E43CF53E
:040C4A00248D25854B
:0C0C4E004F82C002120716AB82D002EBEE
:040C5A002AF58222D3
:0C0C5E00AA82AB83ACF07DFF7EFFAF6C80
:0D0C6A008F001FE860228A828B838CF012BD
:0D0C77001673F8A3AA82AB83EE6200E8902A
:0E0C840016B593F96DFEE89017B593FD80D874
:0E0C92008D02E4FDFBEE4DF582EB4AF5832268
:0E0CA000AA82AB83ACF074012AFDE43BFE8C0B
:0E0CAE00078D828E838FF0121673FE7D008AF2
:0E0CBC00828B838CF01216737B004DF582EB59
:040CCA004EF583223E
:090CCE00AA82AB83AC6CAD6DAEE3
:0B0CD7006E8A078C828D838EF0EF1276
:0A0CE200106674012CF56CE43DF57A
:040CEC006D8E6EACEF
:040CF0006CAD6DAECC
:0B0CF4006E8B028C828D838EF0EA1262
:060CFF001066758202225E
:070D0500AA82AB6EAC6FADDA
:0C0D0C00708B828C838DF0EA12106674EC
:090D1800012BF56EE43CF56F8D32
:040D210070AA6EAB9B
:0A0D25006FAC708A828B838CF0E5BE
:080D2F006C12106674012AF534
:060D37006EE43BF56F8C39
:040D3D0070AA6EAB7F
:0A0D41006FAC708A828B838CF0E5A2
:080D4B006D121066758203228F
:090D5300AA827403256DF574AC4D
:040D5C0071AD72AE55
:0C0D6000738C828D838EF0EA1210667492
:090D6C00012CF571E43DF5728ED5
:040D750073AA71AC40
:0A0D790072AD738A828C838DF0E561
:080D83006C12106674012AF5E0
:060D8B0071E43CF5728DDD
:040D910073AA71AC24
:0A0D950072AD738A828C838DF0E545
:080D9F006D12106674012AF5C3
:060DA70071E43CF5728DC1
:040DAD0073AA6EAC0B
:040DB1006FAD70AE04
:040DB50071AF72A800
:030DB90073A96DAE
:0D0DBC00890319EB60208A828C838DF01270
:0E0DC9001673FBA3AA82AC838E828F8388F000
:0B0DD700EB121066A3AE82AF8380DA3F
:040DE2008574822270
:070DE600AA82AB71AC72ADF3
:0C0DED00738B828C838DF0EA1210667408
:090DF900012BF571E43CF5728D4B
:040E020073AA71ABB3
:0A0E060072AC738A828B838CF0E5D6
:080E10006C12106674012AF552
:060E180071E43BF5728C51
:040E1E0073AA71AB97
:040E220072AC73AD8E
:0C0E26006E8A828B838CF0ED12106674D3
:090E3200012AF571E43BF5728C14
:040E3B0073AA71AB7A
:040E3F0072AC73AD71
:0C0E43006D8A828B838CF0ED12106674B7
:090E4F00012AF571E43BF5728CF7
:040E580073AA71AB5D
:040E5C0072AC73AD54
:0C0E6000708A828B838CF0ED1210667497
:090E6C00012AF571E43BF5728CDA
:040E750073AA71AB40
:040E790072AC73AD37
:0C0E7D006F8A828B838CF0ED121066757A
:030E8900820622BC
:070E8C00AA82AB71AC72AD4C
:0C0E9300738B828C838DF0EA1210667461
:090E9F00012BF571E43CF5728DA4
:040EA80073AA71AB0D
:0A0EAC0072AC738A828B838CF0E530
:080EB6006C12106674012AF5AC
:060EBE0071E43BF5728CAB
:040EC40073AA71ABF1
:040EC80072AC73ADE8
:0C0ECC006E8A828B838CF0ED121066742D
:090ED800012AF571E43BF5728C6E
:040EE10073AA71ABD4
:040EE50072AC73ADCB
:0C0EE9006D8A828B838CF0ED1210667411
:090EF500012AF571E43BF5728C51
:040EFE0073AA71ABB7
:040F020072AC73ADAD
:0C0F0600708A828B838CF0ED12106674F0
:090F1200012AF571E43BF5728C33
:040F1B0073AA71AB99
:040F1F0072AC73AD90
:0C0F23006F8A828B838CF0ED12106675D3
:030F2F0082062215
:070F3200AA82AB74AC75AD9F
:0C0F3900768B828C838DF0EA12106674B7
:090F4500012BF574E43CF5758DF7
:040F4E0076AA74AB60
:0A0F520075AC768A828B838CF0E583
:080F5C006C12106674012AF505
:060F640074E43BF5758CFE
:040F6A0076AA74AB44
:040F6E0075AC76AD3B
:0C0F72006E8A828B838CF0ED1210667486
:090F7E00012AF574E43BF5758CC1
:040F870076AA74AB27
:040F8B0075AC76AD1E
:0C0F8F006D8A828B838CF0ED121066746A
:090F9B00012AF574E43BF5758CA4
:040FA40076AA74AB0A
:040FA80075AC76AD01
:0C0FAC00708A828B838CF0ED121066744A
:090FB800012AF574E43BF5758C87
:040FC10076AA74ABED
:040FC50075AC76ADE4
:0C0FC9006F8A828B838CF0ED121066742E
:090FD500012AF574E43BF5758C6A
:080FDE0076740FB56C02800B64
:0A0FE6007410B56C21ED2DF5778035
:010FF0001EE2
:0A0FF1007407256FFBE43570C4237C
:0E0FFB00CBC423541F6BCB541FCB6BCBFC8B92
:03100900778003EA
:03100C00757700F5
:05100F00AB74AC75ADEF
:0A101400768B828C838DF0E5771255
:0A101E00106674012BF574E43CF534
:04102800758D76ABA1
:04102C0071AC72AD84
:0410300073AE74AF78
:0410340075A876A97C
:011038007740
:0D103900890219EA60208B828C838DF012F1
:0E1046001673FAA3AB82AC838E828F8388F080
:0B105400EA121066A3AE82AF8380DAC0
:07105F0074072577F58222DA
:0E16B50000C1814001C0804101C0804100C1E0
:0E16C300814001C0804100C1814000C18140D2
:0E16D10001C0804101C0804100C1814000C1C4
:0E16DF00814001C0804100C1814001C08041B6
:0E16ED0001C0804100C1814001C0804100C1A8
:0E16FB00814000C1814001C0804100C181409A
:0E17090001C0804101C0804100C1814000C18B
:0E171700814001C0804101C0804100C181407D
:0E17250001C0804100C1814000C1814001C06F
:0E173300804101C0804100C1814000C1814061
:0E17410001C0804100C1814001C0804101C053
:0E174F00804100C1814000C1814001C0804145
:0E175D0001C0804100C1814001C0804100C137
:0E176B00814000C1814001C0804100C1814029
:0E17790001C0804101C0804100C1814001C01B
:0E178700804100C1814000C1814001C080410D
:0E17950001C0804100C1814000C1814001C0FF
:0E17A300804100C1814001C0804101C08041F1
:0417B10000C18140B2
:0E17B50000C0C101C30302C2C60607C705C5B6
:0E17C300C404CC0C0DCD0FCFCE0E0ACACB0B3A
:0E17D100C90908C8D81819D91BDBDA1A1EDEA0
:0E17DF00DF1FDD1D1CDC14D4D515D71716D660
:0E17ED00D21213D311D1D010F03031F133F3FA
:0E17FB00F23236F6F737F53534F43CFCFD3D9E
:0E180900FF3F3EFEFA3A3BFB39F9F83828E87B
:0E181700E929EB2B2AEAEE2E2FEF2DEDEC2C1B
:0E182500E42425E527E7E62622E2E323E1217D
:0E18330020E0A06061A163A3A26266A6A76781
:0E184100A56564A46CACAD6DAF6F6EAEAA6A07
:0E184F006BAB69A9A86878B8B979BB7B7ABA87
:0E185D00BE7E7FBF7DBDBC7CB47475B577B711
:0E186B00B67672B2B373B17170B050909151F5
:0E1879009353529296565797559594549C5CF3
:0E1887005D9D5F9F9E5E5A9A9B5B9959589893
:0E189500884849894B8B8A4A4E8E8F4F8D4D65
:0E18A3004C8C448485458747468682424383A9
:0418B10041818040B1
:06004200E478FFF6D8FD92
:080020007900E94400601B7A3D
:05002800009018C078F3
:03002D001075A0AB
:0A00300002E493F2A308B8000205F1
:08003A00A0D9F4DAF275A0FF71
:0E10660020F71030F6118883A88220F507F6D7
:05107400A88375830054
:011079002254
:03107A00F280F70A
:02107D00F0225F
:080048007800E84400600A7929
:030050000075A098
:0600530000E4F309D8FCF3
:080059007810E84402600C7904
:0B00610003900000E4F0A3D8FCD9FAE3
:06107F00C0168581161267
:0510850004A1D01622B9
:08108A0085826285836385F015
:0510920064E4F55FF5C8
:05109700607561008599
:03109C0015659047
:05109F00107F02116743
:0610A400C016858116E56F
:0710AA001624FBF565E4F5D7
:0410B1005FF560F592
:0710B50061E51624FBF8863B
:0610BC006208866308864D
:0510C2006490107F1294
:0510C7001167D01622A4
:0710CC00AA82C055C056C006
:0610D3005774E3C0E07455
:0610D90010C0E0C053C08E
:0410DF00548A82228B
:0A10E300158115811581055DE4B546
:0410ED005D02055E3D
:0110F10022DC
:0B10F200AA8274302AFA7439B502009B
:0C10FD00500A74072AFA30040343022052
:051109008A820210CCF7
:0E110E00E582FAC4540FF582C0021210F2D02E
:09111C0002740F5AF5820210F270
:0611250085826CAB58ACA2
:04112B0059AD5AAEB2
:04112F005BAF5C75E1
:021133006D202D
:0E113500EF2FFFEE235401FA4207EB2BFBECE9
:0C11430033FCED33FDEE33FEEFB56C0025
:0A114F004008EFC3956CFF43030155
:06115900D56DD98B588C06
:04115F00598D5A8EBE
:041163005B8F5C2220
:071167008582538583548546
:03116E005F558545
:0311710060568540
:041174006157E4F5E6
:031178005DF55EC4
:05117B00AA62AB63ACA9
:0C118000648A828B838CF0121673FD745D
:09118C00012AF562E43BF5638CD5
:0811950064EDFA700302165428
:05119D00BA25028003E9
:0311A20002164CE6
:0511A500C205C206C2F4
:0411AA0007C208C2AE
:0411AE0009C20AC2A6
:0411B2000BC20C75EB
:0811B60066007567007DFFAEC5
:0411BE0062AF63AB0E
:0111C20064C8
:0E11C3008E828F838BF0121673FAA3AE82AF6A
:0611D100838E628F638B28
:0B11D70064BA25078A821210CC8099B0
:0511E2008A04BC30008E
:0911E70040288A047439B50400A3
:0C11F000401FBDFF11E56775F00AA42A3E
:0A11FC0024D0F56770C1D20680BD53
:0B120600ED75F00AA42A24D0FD80B290
:0A121100BA2E07BDFFAC7D0080A8D7
:05121B008A04BC610023
:0912200040108A04747AB5040040
:0912290040075302DFD2048002E9
:02123200C204F4
:05123400BA2002805504
:05123900BA2B02804BFE
:05123E00BA2D02804101
:05124300BA4202804BDD
:05124800BA43028050D2
:06124D00BA44030213F590
:06125300BA460302140B71
:06125900BA49030213F57F
:05125F00BA4C028034CE
:06126400BA4F030213FC67
:06126A00BA500302138CD0
:05127000BA5302804C9E
:06127500BA55030214014A
:06127B00BA58030214063C
:0312810002140F45
:05128400D2050211C3B8
:05128900D2070211C3B1
:05128E00D2080211C3AB
:05129300D20A0211C3A4
:05129800D20B0211C39E
:08129D00300A0AE56514F88827
:0512A500658602800FC8
:0A12AA00E56524FEF8886586030858
:0512B4008604188B0206
:0812B9008A821210CC02141805
:0A12C100E56524FDF8886586030842
:0A12CB00860408860618188B588C5C
:0A12D500598E5A8B828C838EF0C074
:0E12DF000512165BAB82AC83D005BDFF028BFF
:0112ED0005FB
:0712EE0020052CEBB56700A1
:0912F5005026E567C39BF567ACC8
:0112FE006788
:0C12FF008C061C8C67EE6014758220C009
:0E130B0003C004C0051210CCD005D004D003DE
:0213190080E46E
:02131B008C67DD
:02131D008D043D
:07131F008558828559838582
:0C1326005AF0121673FDFA602F8C051CA3
:0E133200C374808DF063F08095F050208A82A5
:0C134000C003C0041210CCD004D003ADD8
:04134C0058AE59AF8F
:061350005A0DBD00010E64
:051356008D588E598F37
:03135B005A80C1F4
:06135E0020050302141833
:04136400EBB567007E
:0513680040030214180F
:07136D00E567C39BF567ACC7
:011374006711
:0B1375008C051C8C67ED700302141641
:0C138000758220C0041210CCD00480E95B
:0A138C00E56524FDF8886586050874
:0A139600860608860718188D588E89
:0413A000598F5AAD5A
:0413A4005ABD8000AE
:0613A80040047A438014AA
:0313AE00BD60001F
:0613B10040047A50800B9D
:0313B700BD400036
:0613BA0040047A498002A4
:0213C0007A5859
:0E13C2008A82C0021210CC75823A1210CC75CD
:0E13D00082301210CC7582781210CCD002BA86
:0413DE004902800B35
:0513E200BA5002800674
:0613E70085598212110E6F
:0813ED0085588212110E8023C5
:0713F500D20975660A801C95
:0513FC00756608801772
:0514010075660A80126F
:05140600756610800D69
:04140B00D20C800976
:07140F008A821210CC80025A
:021416008C67E1
:09141800300C5AE56524FCF8884B
:0C14210065860408860508860608860714
:08142D001818188C588D598E17
:041435005A8F5B75FA
:0314390058B5752E
:03143C00591875C7
:02143F005A80D1
:0414410085586985DC
:03144500596A855C
:051448005A6B74012540
:07144D0069FFE4356AFCAD04
:041454006B8F588CB6
:04145800598D5A85CB
:06145C006982856A8385A8
:0A1462006BF0121673FCFA7003021F
:02146C00117BF2
:07146E008A821210CC80CC31
:07147500E566700302117B24
:04147C0075681C3043
:071480000A2BE56514F88852
:0A14870065E6FD3395E0FEFFFC8DE5
:04149100588E598F89
:041495005A8C5B20F2
:0A1499000962AC587D007E007F0060
:0514A3008C588D598EEC
:0514A8005A8F5B80502B
:0914AD00300B1FE56524FCF888F2
:0C14B6006586040886050886060886077F
:0814C2001818188C588D598E82
:0514CA005A8F5B802E2B
:0A14CF00E56524FEF8886586040830
:0C14D900860518ED3395E0FEFF8C588D61
:0414E500598E5A8F33
:0514E9005B200910ACBE
:0814EE0058AD597E007F008C0F
:0414F600588D598E26
:0314FA005A8F5BAB
:0614FD00300925AC58ADDA
:0415030059AE5AE59E
:0C1507005BFF30E717C3E49CFCE49DFD93
:0A151300E49EFEE49FFF8C588D5902
:06151D008E5A8F5B800274
:02152300C209FB
:06152500D20DA8687C0055
:0A152B00755C00856682C004C000F4
:0B153500121125D000D004200D0DE5A0
:0A1540005CC4FDE6FE4DF618886855
:02154A0080021D
:02154C00A65C9B
:08154E000C8C03B20DE55845B9
:0415560059455A4554
:08155A005B70CE88688C03E58C
:06156200677003756701CC
:0A156800200625200522EB04FCAD4F
:011572006711
:04157300ECB50500CE
:0E1577005015758220C003C004C0051210CCB0
:09158500D005D004D0031D80E55F
:02158E008D6767
:0C15900030090E75822DC0031210CCD063
:05159C00031567802328
:0C15A100EB602030070E75822BC0031297
:0815AD0010CCD0031567800F7C
:0C15B50030080C758220C0031210CCD04E
:0315C100031567A8
:0515C400200525AC67C5
:0915C9008C051C8C67EBB50500D4
:0915D200502B3006047D3080022C
:0215DB007D2071
:0E15DD008D82C003C0041210CCD004D0038055
:0115EB00DD22
:0415EC00EBB56700F4
:0A15F0005008E567C39BF56780070C
:0515FA0075670080028E
:0215FF008C67F7
:02160100A868D7
:0A1603008B041BEC6026B20D200DD5
:0B160D000A08E6C4540FFC8C5C800748
:071618008604740F5CF55C11
:0C161F00855C82C003C0001210F2D000F5
:04162B00D00380D494
:06162F0020050302117BFF
:02163500AB67A1
:091637008B041BEC700302117B13
:0C164000758220C0031210CCD00380EB98
:08164C008A821210CC02117B0E
:07165400855D82855E8322A3
:0B18B5003C4E4F20464C4F41543E007B
:04165B00AA82AB8331
:08165F001216736003A380F86A
:0C166700C3E5829AF582E5839BF583229F
:030013007581777D
:0A00160012168FE582600302000E4F
:0E16730020F71430F6148883A88220F507E6CD
:06168100A883758300221E
:03168700E280F707
:03168A00E49322C4
:02168D00E02259
:04168F00758200223E
:00000001FF
